{
  "contractName": "CryptoMonkey",
  "abi": [
    {
      "inputs": [],
      "stateMutability": "nonpayable",
      "type": "constructor"
    },
    {
      "anonymous": false,
      "inputs": [
        {
          "indexed": true,
          "internalType": "address",
          "name": "_owner",
          "type": "address"
        },
        {
          "indexed": true,
          "internalType": "address",
          "name": "_approved",
          "type": "address"
        },
        {
          "indexed": true,
          "internalType": "uint256",
          "name": "_tokenId",
          "type": "uint256"
        }
      ],
      "name": "Approval",
      "type": "event"
    },
    {
      "anonymous": false,
      "inputs": [
        {
          "indexed": true,
          "internalType": "address",
          "name": "_owner",
          "type": "address"
        },
        {
          "indexed": true,
          "internalType": "address",
          "name": "_operator",
          "type": "address"
        },
        {
          "indexed": false,
          "internalType": "bool",
          "name": "_approved",
          "type": "bool"
        }
      ],
      "name": "ApprovalForAll",
      "type": "event"
    },
    {
      "anonymous": false,
      "inputs": [
        {
          "indexed": true,
          "internalType": "address",
          "name": "_from",
          "type": "address"
        },
        {
          "indexed": true,
          "internalType": "address",
          "name": "_to",
          "type": "address"
        },
        {
          "indexed": true,
          "internalType": "uint256",
          "name": "_tokenId",
          "type": "uint256"
        }
      ],
      "name": "Transfer",
      "type": "event"
    },
    {
      "inputs": [
        {
          "internalType": "address",
          "name": "_to",
          "type": "address"
        },
        {
          "internalType": "uint256",
          "name": "tokenId",
          "type": "uint256"
        }
      ],
      "name": "approve",
      "outputs": [],
      "stateMutability": "nonpayable",
      "type": "function"
    },
    {
      "inputs": [
        {
          "internalType": "address",
          "name": "_owner",
          "type": "address"
        }
      ],
      "name": "balanceOf",
      "outputs": [
        {
          "internalType": "uint256",
          "name": "",
          "type": "uint256"
        }
      ],
      "stateMutability": "view",
      "type": "function",
      "constant": true
    },
    {
      "inputs": [
        {
          "internalType": "uint256",
          "name": "",
          "type": "uint256"
        }
      ],
      "name": "cryptoMonkeyz",
      "outputs": [
        {
          "internalType": "string",
          "name": "",
          "type": "string"
        }
      ],
      "stateMutability": "view",
      "type": "function",
      "constant": true
    },
    {
      "inputs": [
        {
          "internalType": "uint256",
          "name": "tokenId",
          "type": "uint256"
        }
      ],
      "name": "getApproved",
      "outputs": [
        {
          "internalType": "address",
          "name": "",
          "type": "address"
        }
      ],
      "stateMutability": "view",
      "type": "function",
      "constant": true
    },
    {
      "inputs": [
        {
          "internalType": "address",
          "name": "owner",
          "type": "address"
        },
        {
          "internalType": "address",
          "name": "to",
          "type": "address"
        }
      ],
      "name": "isApprovedForAll",
      "outputs": [
        {
          "internalType": "bool",
          "name": "",
          "type": "bool"
        }
      ],
      "stateMutability": "view",
      "type": "function",
      "constant": true
    },
    {
      "inputs": [],
      "name": "name",
      "outputs": [
        {
          "internalType": "string",
          "name": "",
          "type": "string"
        }
      ],
      "stateMutability": "view",
      "type": "function",
      "constant": true
    },
    {
      "inputs": [
        {
          "internalType": "uint256",
          "name": "_tokenId",
          "type": "uint256"
        }
      ],
      "name": "ownerOf",
      "outputs": [
        {
          "internalType": "address",
          "name": "",
          "type": "address"
        }
      ],
      "stateMutability": "view",
      "type": "function",
      "constant": true
    },
    {
      "inputs": [
        {
          "internalType": "address",
          "name": "_from",
          "type": "address"
        },
        {
          "internalType": "address",
          "name": "_to",
          "type": "address"
        },
        {
          "internalType": "uint256",
          "name": "_tokenId",
          "type": "uint256"
        }
      ],
      "name": "safeTransferFrom",
      "outputs": [],
      "stateMutability": "nonpayable",
      "type": "function"
    },
    {
      "inputs": [
        {
          "internalType": "address",
          "name": "_from",
          "type": "address"
        },
        {
          "internalType": "address",
          "name": "_to",
          "type": "address"
        },
        {
          "internalType": "uint256",
          "name": "_tokenId",
          "type": "uint256"
        },
        {
          "internalType": "bytes",
          "name": "data",
          "type": "bytes"
        }
      ],
      "name": "safeTransferFrom",
      "outputs": [],
      "stateMutability": "nonpayable",
      "type": "function"
    },
    {
      "inputs": [
        {
          "internalType": "address",
          "name": "to",
          "type": "address"
        },
        {
          "internalType": "bool",
          "name": "approved",
          "type": "bool"
        }
      ],
      "name": "setApprovalForAll",
      "outputs": [],
      "stateMutability": "nonpayable",
      "type": "function"
    },
    {
      "inputs": [
        {
          "internalType": "bytes4",
          "name": "interfaceId",
          "type": "bytes4"
        }
      ],
      "name": "supportsInterface",
      "outputs": [
        {
          "internalType": "bool",
          "name": "",
          "type": "bool"
        }
      ],
      "stateMutability": "view",
      "type": "function",
      "constant": true
    },
    {
      "inputs": [],
      "name": "symbol",
      "outputs": [
        {
          "internalType": "string",
          "name": "",
          "type": "string"
        }
      ],
      "stateMutability": "view",
      "type": "function",
      "constant": true
    },
    {
      "inputs": [
        {
          "internalType": "uint256",
          "name": "index",
          "type": "uint256"
        }
      ],
      "name": "tokenByIndex",
      "outputs": [
        {
          "internalType": "uint256",
          "name": "",
          "type": "uint256"
        }
      ],
      "stateMutability": "view",
      "type": "function",
      "constant": true
    },
    {
      "inputs": [
        {
          "internalType": "address",
          "name": "owner",
          "type": "address"
        },
        {
          "internalType": "uint256",
          "name": "index",
          "type": "uint256"
        }
      ],
      "name": "tokenOfOwnerByIndex",
      "outputs": [
        {
          "internalType": "uint256",
          "name": "",
          "type": "uint256"
        }
      ],
      "stateMutability": "view",
      "type": "function",
      "constant": true
    },
    {
      "inputs": [
        {
          "internalType": "uint256",
          "name": "_tokenId",
          "type": "uint256"
        }
      ],
      "name": "tokenURI",
      "outputs": [
        {
          "internalType": "string",
          "name": "",
          "type": "string"
        }
      ],
      "stateMutability": "view",
      "type": "function",
      "constant": true
    },
    {
      "inputs": [],
      "name": "totalSupply",
      "outputs": [
        {
          "internalType": "uint256",
          "name": "",
          "type": "uint256"
        }
      ],
      "stateMutability": "view",
      "type": "function",
      "constant": true
    },
    {
      "inputs": [
        {
          "internalType": "address",
          "name": "_from",
          "type": "address"
        },
        {
          "internalType": "address",
          "name": "_to",
          "type": "address"
        },
        {
          "internalType": "uint256",
          "name": "_tokenId",
          "type": "uint256"
        }
      ],
      "name": "transferFrom",
      "outputs": [],
      "stateMutability": "nonpayable",
      "type": "function"
    },
    {
      "inputs": [
        {
          "internalType": "string",
          "name": "_cryptoMonkey",
          "type": "string"
        }
      ],
      "name": "mint",
      "outputs": [],
      "stateMutability": "nonpayable",
      "type": "function"
    }
  ],
  "bytecode": "0x60806040523480156200001157600080fd5b506040518060400160405280600d81526020017f43727970746f4d6f6e6b65797a000000000000000000000000000000000000008152506040518060400160405280600581526020017f434d4e4b5a0000000000000000000000000000000000000000000000000000008152508181620000b17f01ffc9a7a5cef8baa21ed3c5c0d7e23accb804b619e9333b597f47a0d84076e2620002a360201b60201c565b620001f27fe0c9b09697cad3aa3f2bcb7fdd781becaefa478990b24e83d3bfdb65623d77537f5af227006b8981efabb10af200ab71f08976cbce54b4c59ae5c97811d19a398c7f90dba0bef8387ab29f95a1abead857c8ccc338f1038f6fa159fa78fd18aff9f77f8c51fd5fcf1f456ec4eb0f32f68d83471264fe082fac12bcbfd2fa4be9eed6c77f22c82707ba960a14c7592ffb6b8cfaa073fed0048a84cc7fa41f6b5bd8e7f2e47fff7341469d1032a8961cef465667653e12d730d214ab8054eee793eb8c0993d87f1cf138a85b0e62e7e98a8302d9c9eb9460c8ba52e5da3c28daff2b626089dd8d7f3a6eb71757dfc6e784c1459d26270140c2c147d95ca985c80026fc5301c3eca17f8a7e378434598edc36d108689a030cbc9d7d465de4f74c71bae1028eed6a881b1818181818181818620002a360201b60201c565b81600190805190602001906200020a9291906200030f565b508060029080519060200190620002239291906200030f565b5050506200029b7f6da5e1284143cdd2d15038a59bde3be031250f00291d64494c12d967b3a4e0c37f8230223f691b981717299fae9549350a0d894555723531f02108b1f522c1a7977fc53637662700e6c65104059db8bba34439e0c32483ab7c34e3ccae52c73954951818620002a360201b60201c565b505062000423565b6001600080837bffffffffffffffffffffffffffffffffffffffffffffffffffffffff19167bffffffffffffffffffffffffffffffffffffffffffffffffffffffff1916815260200190815260200160002060006101000a81548160ff02191690831515021790555050565b8280546200031d90620003ee565b90600052602060002090601f0160209004810192826200034157600085556200038d565b82601f106200035c57805160ff19168380011785556200038d565b828001600101855582156200038d579182015b828111156200038c5782518255916020019190600101906200036f565b5b5090506200039c9190620003a0565b5090565b5b80821115620003bb576000816000905550600101620003a1565b5090565b7f4e487b7100000000000000000000000000000000000000000000000000000000600052602260045260246000fd5b600060028204905060018216806200040757607f821691505b6020821081036200041d576200041c620003bf565b5b50919050565b612d8180620004336000396000f3fe608060405234801561001057600080fd5b50600436106101165760003560e01c80636352211e116100a2578063b88d4fde11610071578063b88d4fde14610305578063c87b56dd14610321578063d3261c9e14610351578063d85d3d2714610381578063e985e9c51461039d57610116565b80636352211e1461026b57806370a082311461029b57806395d89b41146102cb578063a22cb465146102e957610116565b806318160ddd116100e957806318160ddd146101b557806323b872dd146101d35780632f745c59146101ef57806342842e0e1461021f5780634f6ccce71461023b57610116565b806301ffc9a71461011b57806306fdde031461014b578063081812fc14610169578063095ea7b314610199575b600080fd5b61013560048036038101906101309190611a55565b6103cd565b6040516101429190611a9d565b60405180910390f35b610153610434565b6040516101609190611b51565b60405180910390f35b610183600480360381019061017e9190611ba9565b6104c6565b6040516101909190611c17565b60405180910390f35b6101b360048036038101906101ae9190611c5e565b61054b565b005b6101bd6106e6565b6040516101ca9190611cad565b60405180910390f35b6101ed60048036038101906101e89190611cc8565b6106f3565b005b61020960048036038101906102049190611c5e565b610716565b6040516102169190611cad565b60405180910390f35b61023960048036038101906102349190611cc8565b6107bb565b005b61025560048036038101906102509190611ba9565b6107db565b6040516102629190611cad565b60405180910390f35b61028560048036038101906102809190611ba9565b61084c565b6040516102929190611c17565b60405180910390f35b6102b560048036038101906102b09190611d1b565b6108fd565b6040516102c29190611cad565b60405180910390f35b6102d36109bb565b6040516102e09190611b51565b60405180910390f35b61030360048036038101906102fe9190611d74565b610a4d565b005b61031f600480360381019061031a9190611ee9565b610bb8565b005b61033b60048036038101906103369190611ba9565b610c13565b6040516103489190611b51565b60405180910390f35b61036b60048036038101906103669190611ba9565b610cba565b6040516103789190611b51565b60405180910390f35b61039b6004803603810190610396919061200d565b610d66565b005b6103b760048036038101906103b29190612056565b610e69565b6040516103c49190611a9d565b60405180910390f35b6000806000837bffffffffffffffffffffffffffffffffffffffffffffffffffffffff19167bffffffffffffffffffffffffffffffffffffffffffffffffffffffff1916815260200190815260200160002060009054906101000a900460ff169050919050565b606060018054610443906120c5565b80601f016020809104026020016040519081016040528092919081815260200182805461046f906120c5565b80156104bc5780601f10610491576101008083540402835291602001916104bc565b820191906000526020600020905b81548152906001019060200180831161049f57829003601f168201915b5050505050905090565b60006104d182610efd565b610510576040517f08c379a000000000000000000000000000000000000000000000000000000000815260040161050790612168565b60405180910390fd5b6005600083815260200190815260200160002060009054906101000a900473ffffffffffffffffffffffffffffffffffffffff169050919050565b60006105568261084c565b90508073ffffffffffffffffffffffffffffffffffffffff163373ffffffffffffffffffffffffffffffffffffffff16146105c6576040517f08c379a00000000000000000000000000000000000000000000000000000000081526004016105bd906121fa565b60405180910390fd5b8073ffffffffffffffffffffffffffffffffffffffff168373ffffffffffffffffffffffffffffffffffffffff1603610634576040517f08c379a000000000000000000000000000000000000000000000000000000000815260040161062b9061228c565b60405180910390fd5b826005600084815260200190815260200160002060006101000a81548173ffffffffffffffffffffffffffffffffffffffff021916908373ffffffffffffffffffffffffffffffffffffffff160217905550818373ffffffffffffffffffffffffffffffffffffffff168273ffffffffffffffffffffffffffffffffffffffff167f8c5be1e5ebec7d5bd14f71427d1e84f3dd0314c0f7b2291e5b200ac8c7c3b92560405160405180910390a4505050565b6000600780549050905090565b6106fd3382610f6f565b61070657600080fd5b61071183838361104d565b505050565b6000610721836108fd565b8210610762576040517f08c379a0000000000000000000000000000000000000000000000000000000008152600401610759906122f8565b60405180910390fd5b600960008473ffffffffffffffffffffffffffffffffffffffff1673ffffffffffffffffffffffffffffffffffffffff168152602001908152602001600020600083815260200190815260200160002054905092915050565b6107d683838360405180602001604052806000815250610bb8565b505050565b60006107e56106e6565b8210610826576040517f08c379a000000000000000000000000000000000000000000000000000000000815260040161081d90612364565b60405180910390fd5b6007828154811061083a57610839612384565b5b90600052602060002001549050919050565b6000806003600084815260200190815260200160002060009054906101000a900473ffffffffffffffffffffffffffffffffffffffff169050600073ffffffffffffffffffffffffffffffffffffffff168173ffffffffffffffffffffffffffffffffffffffff16036108f4576040517f08c379a00000000000000000000000000000000000000000000000000000000081526004016108eb90612425565b60405180910390fd5b80915050919050565b60008073ffffffffffffffffffffffffffffffffffffffff168273ffffffffffffffffffffffffffffffffffffffff160361096d576040517f08c379a0000000000000000000000000000000000000000000000000000000008152600401610964906124b7565b60405180910390fd5b6109b4600460008473ffffffffffffffffffffffffffffffffffffffff1673ffffffffffffffffffffffffffffffffffffffff1681526020019081526020016000206112a9565b9050919050565b6060600280546109ca906120c5565b80601f01602080910402602001604051908101604052809291908181526020018280546109f6906120c5565b8015610a435780601f10610a1857610100808354040283529160200191610a43565b820191906000526020600020905b815481529060010190602001808311610a2657829003601f168201915b5050505050905090565b3373ffffffffffffffffffffffffffffffffffffffff168273ffffffffffffffffffffffffffffffffffffffff1603610abb576040517f08c379a0000000000000000000000000000000000000000000000000000000008152600401610ab290612523565b60405180910390fd5b80600660003373ffffffffffffffffffffffffffffffffffffffff1673ffffffffffffffffffffffffffffffffffffffff16815260200190815260200160002060008473ffffffffffffffffffffffffffffffffffffffff1673ffffffffffffffffffffffffffffffffffffffff16815260200190815260200160002060006101000a81548160ff0219169083151502179055508173ffffffffffffffffffffffffffffffffffffffff163373ffffffffffffffffffffffffffffffffffffffff167f17307eab39ab6107e8899845ad3d59bd9653f200f220920489ca2b5937696c3183604051610bac9190611a9d565b60405180910390a35050565b610bc23383610f6f565b610c01576040517f08c379a0000000000000000000000000000000000000000000000000000000008152600401610bf8906125b5565b60405180910390fd5b610c0d848484846112b7565b50505050565b6060610c1e82610efd565b610c5d576040517f08c379a0000000000000000000000000000000000000000000000000000000008152600401610c5490612647565b60405180910390fd5b6000610c67611313565b90506000815111610c875760405180602001604052806000815250610cb2565b80610c918461132a565b604051602001610ca29291906126a3565b6040516020818303038152906040525b915050919050565b600b8181548110610cca57600080fd5b906000526020600020016000915090508054610ce5906120c5565b80601f0160208091040260200160405190810160405280929190818152602001828054610d11906120c5565b8015610d5e5780601f10610d3357610100808354040283529160200191610d5e565b820191906000526020600020905b815481529060010190602001808311610d4157829003601f168201915b505050505081565b600c81604051610d7691906126c7565b908152602001604051809103902060009054906101000a900460ff1615610dd2576040517f08c379a0000000000000000000000000000000000000000000000000000000008152600401610dc990612750565b60405180910390fd5b600b81908060018154018082558091505060019003906000526020600020016000909190919091509080519060200190610e0d929190611946565b5060006001600b80549050610e22919061279f565b9050610e2e338261148a565b6001600c83604051610e4091906126c7565b908152602001604051809103902060006101000a81548160ff0219169083151502179055505050565b6000600660008473ffffffffffffffffffffffffffffffffffffffff1673ffffffffffffffffffffffffffffffffffffffff16815260200190815260200160002060008373ffffffffffffffffffffffffffffffffffffffff1673ffffffffffffffffffffffffffffffffffffffff16815260200190815260200160002060009054906101000a900460ff16905092915050565b6000806003600084815260200190815260200160002060009054906101000a900473ffffffffffffffffffffffffffffffffffffffff169050600073ffffffffffffffffffffffffffffffffffffffff168173ffffffffffffffffffffffffffffffffffffffff161415915050919050565b6000610f7a82610efd565b610fb9576040517f08c379a0000000000000000000000000000000000000000000000000000000008152600401610fb09061281f565b60405180910390fd5b6000610fc48361084c565b90508073ffffffffffffffffffffffffffffffffffffffff168473ffffffffffffffffffffffffffffffffffffffff16148061103357508373ffffffffffffffffffffffffffffffffffffffff1661101b846104c6565b73ffffffffffffffffffffffffffffffffffffffff16145b8061104457506110438185610e69565b5b91505092915050565b600073ffffffffffffffffffffffffffffffffffffffff168273ffffffffffffffffffffffffffffffffffffffff16036110bc576040517f08c379a00000000000000000000000000000000000000000000000000000000081526004016110b3906128b1565b60405180910390fd5b8273ffffffffffffffffffffffffffffffffffffffff166003600083815260200190815260200160002060009054906101000a900473ffffffffffffffffffffffffffffffffffffffff1673ffffffffffffffffffffffffffffffffffffffff161461115d576040517f08c379a000000000000000000000000000000000000000000000000000000000815260040161115490612943565b60405180910390fd5b816003600083815260200190815260200160002060006101000a81548173ffffffffffffffffffffffffffffffffffffffff021916908373ffffffffffffffffffffffffffffffffffffffff1602179055506111f6600460008573ffffffffffffffffffffffffffffffffffffffff1673ffffffffffffffffffffffffffffffffffffffff1681526020019081526020016000206114ab565b61123d600460008473ffffffffffffffffffffffffffffffffffffffff1673ffffffffffffffffffffffffffffffffffffffff1681526020019081526020016000206114ce565b808273ffffffffffffffffffffffffffffffffffffffff168473ffffffffffffffffffffffffffffffffffffffff167fddf252ad1be2c89b69c2b068fc378daa952ba7f163c4a11628f55a4df523b3ef60405160405180910390a46112a4600083836114ed565b505050565b600081600001549050919050565b6112c284848461104d565b6112ce848484846114f2565b61130d576040517f08c379a0000000000000000000000000000000000000000000000000000000008152600401611304906129d5565b60405180910390fd5b50505050565b606060405180602001604052806000815250905090565b606060008203611371576040518060400160405280600181526020017f30000000000000000000000000000000000000000000000000000000000000008152509050611485565b600082905060005b600082146113a357808061138c906129f5565b915050600a8261139c9190612a6c565b9150611379565b60008167ffffffffffffffff8111156113bf576113be611dbe565b5b6040519080825280601f01601f1916602001820160405280156113f15781602001600182028036833780820191505090505b5090505b6000851461147e5760018261140a919061279f565b9150600a856114199190612a9d565b60306114259190612ace565b60f81b81838151811061143b5761143a612384565b5b60200101907effffffffffffffffffffffffffffffffffffffffffffffffffffffffffffff1916908160001a905350600a856114779190612a6c565b94506113f5565b8093505050505b919050565b611494828261165c565b61149d8161180d565b6114a78282611856565b5050565b6114c3600182600001546118d590919063ffffffff16565b816000018190555050565b60018160000160008282546114e39190612ace565b9250508190555050565b505050565b60006114fd84611933565b1561164f578373ffffffffffffffffffffffffffffffffffffffff1663150b7a02338786866040518563ffffffff1660e01b81526004016115419493929190612b79565b6020604051808303816000875af192505050801561157d57506040513d601f19601f8201168201806040525081019061157a9190612bda565b60015b6115ff573d80600081146115ad576040519150601f19603f3d011682016040523d82523d6000602084013e6115b2565b606091505b5060008151036115f7576040517f08c379a00000000000000000000000000000000000000000000000000000000081526004016115ee906129d5565b60405180910390fd5b805181602001fd5b63150b7a0260e01b7bffffffffffffffffffffffffffffffffffffffffffffffffffffffff1916817bffffffffffffffffffffffffffffffffffffffffffffffffffffffff191614915050611654565b600190505b949350505050565b600073ffffffffffffffffffffffffffffffffffffffff168273ffffffffffffffffffffffffffffffffffffffff16036116cb576040517f08c379a00000000000000000000000000000000000000000000000000000000081526004016116c290612c53565b60405180910390fd5b6116d481610efd565b15611714576040517f08c379a000000000000000000000000000000000000000000000000000000000815260040161170b90612cbf565b60405180910390fd5b816003600083815260200190815260200160002060006101000a81548173ffffffffffffffffffffffffffffffffffffffff021916908373ffffffffffffffffffffffffffffffffffffffff1602179055506117ad600460008473ffffffffffffffffffffffffffffffffffffffff1673ffffffffffffffffffffffffffffffffffffffff1681526020019081526020016000206114ce565b808273ffffffffffffffffffffffffffffffffffffffff16600073ffffffffffffffffffffffffffffffffffffffff167fddf252ad1be2c89b69c2b068fc378daa952ba7f163c4a11628f55a4df523b3ef60405160405180910390a45050565b6007805490506008600083815260200190815260200160002081905550600781908060018154018082558091505060019003906000526020600020016000909190919091505550565b6000611861836108fd565b905081600960008573ffffffffffffffffffffffffffffffffffffffff1673ffffffffffffffffffffffffffffffffffffffff16815260200190815260200160002060008381526020019081526020016000208190555080600a600084815260200190815260200160002081905550505050565b60008082846118e4919061279f565b905083831115611929576040517f08c379a000000000000000000000000000000000000000000000000000000000815260040161192090612d2b565b60405180910390fd5b8091505092915050565b600080823b905060008111915050919050565b828054611952906120c5565b90600052602060002090601f01602090048101928261197457600085556119bb565b82601f1061198d57805160ff19168380011785556119bb565b828001600101855582156119bb579182015b828111156119ba57825182559160200191906001019061199f565b5b5090506119c891906119cc565b5090565b5b808211156119e55760008160009055506001016119cd565b5090565b6000604051905090565b600080fd5b600080fd5b60007fffffffff0000000000000000000000000000000000000000000000000000000082169050919050565b611a32816119fd565b8114611a3d57600080fd5b50565b600081359050611a4f81611a29565b92915050565b600060208284031215611a6b57611a6a6119f3565b5b6000611a7984828501611a40565b91505092915050565b60008115159050919050565b611a9781611a82565b82525050565b6000602082019050611ab26000830184611a8e565b92915050565b600081519050919050565b600082825260208201905092915050565b60005b83811015611af2578082015181840152602081019050611ad7565b83811115611b01576000848401525b50505050565b6000601f19601f8301169050919050565b6000611b2382611ab8565b611b2d8185611ac3565b9350611b3d818560208601611ad4565b611b4681611b07565b840191505092915050565b60006020820190508181036000830152611b6b8184611b18565b905092915050565b6000819050919050565b611b8681611b73565b8114611b9157600080fd5b50565b600081359050611ba381611b7d565b92915050565b600060208284031215611bbf57611bbe6119f3565b5b6000611bcd84828501611b94565b91505092915050565b600073ffffffffffffffffffffffffffffffffffffffff82169050919050565b6000611c0182611bd6565b9050919050565b611c1181611bf6565b82525050565b6000602082019050611c2c6000830184611c08565b92915050565b611c3b81611bf6565b8114611c4657600080fd5b50565b600081359050611c5881611c32565b92915050565b60008060408385031215611c7557611c746119f3565b5b6000611c8385828601611c49565b9250506020611c9485828601611b94565b9150509250929050565b611ca781611b73565b82525050565b6000602082019050611cc26000830184611c9e565b92915050565b600080600060608486031215611ce157611ce06119f3565b5b6000611cef86828701611c49565b9350506020611d0086828701611c49565b9250506040611d1186828701611b94565b9150509250925092565b600060208284031215611d3157611d306119f3565b5b6000611d3f84828501611c49565b91505092915050565b611d5181611a82565b8114611d5c57600080fd5b50565b600081359050611d6e81611d48565b92915050565b60008060408385031215611d8b57611d8a6119f3565b5b6000611d9985828601611c49565b9250506020611daa85828601611d5f565b9150509250929050565b600080fd5b600080fd5b7f4e487b7100000000000000000000000000000000000000000000000000000000600052604160045260246000fd5b611df682611b07565b810181811067ffffffffffffffff82111715611e1557611e14611dbe565b5b80604052505050565b6000611e286119e9565b9050611e348282611ded565b919050565b600067ffffffffffffffff821115611e5457611e53611dbe565b5b611e5d82611b07565b9050602081019050919050565b82818337600083830152505050565b6000611e8c611e8784611e39565b611e1e565b905082815260208101848484011115611ea857611ea7611db9565b5b611eb3848285611e6a565b509392505050565b600082601f830112611ed057611ecf611db4565b5b8135611ee0848260208601611e79565b91505092915050565b60008060008060808587031215611f0357611f026119f3565b5b6000611f1187828801611c49565b9450506020611f2287828801611c49565b9350506040611f3387828801611b94565b925050606085013567ffffffffffffffff811115611f5457611f536119f8565b5b611f6087828801611ebb565b91505092959194509250565b600067ffffffffffffffff821115611f8757611f86611dbe565b5b611f9082611b07565b9050602081019050919050565b6000611fb0611fab84611f6c565b611e1e565b905082815260208101848484011115611fcc57611fcb611db9565b5b611fd7848285611e6a565b509392505050565b600082601f830112611ff457611ff3611db4565b5b8135612004848260208601611f9d565b91505092915050565b600060208284031215612023576120226119f3565b5b600082013567ffffffffffffffff811115612041576120406119f8565b5b61204d84828501611fdf565b91505092915050565b6000806040838503121561206d5761206c6119f3565b5b600061207b85828601611c49565b925050602061208c85828601611c49565b9150509250929050565b7f4e487b7100000000000000000000000000000000000000000000000000000000600052602260045260246000fd5b600060028204905060018216806120dd57607f821691505b6020821081036120f0576120ef612096565b5b50919050565b7f4552433732313a20617070726f76656420717565727920666f72206e6f6e657860008201527f697374656e7420746f6b656e0000000000000000000000000000000000000000602082015250565b6000612152602c83611ac3565b915061215d826120f6565b604082019050919050565b6000602082019050818103600083015261218181612145565b9050919050565b7f43757272656e742063616c6c6572206973206e6f7420746865206f776e65722060008201527f6f662074686520636f6e74726163740000000000000000000000000000000000602082015250565b60006121e4602f83611ac3565b91506121ef82612188565b604082019050919050565b60006020820190508181036000830152612213816121d7565b9050919050565b7f417070726f76616c206f6620746f6b656e7320746f2063757272656e74206f7760008201527f6e6572206973206e6f7420616c6c6f7765640000000000000000000000000000602082015250565b6000612276603283611ac3565b91506122818261221a565b604082019050919050565b600060208201905081810360008301526122a581612269565b9050919050565b7f4f776e657220696e646578206973206f7574206f6620626f756e647300000000600082015250565b60006122e2601c83611ac3565b91506122ed826122ac565b602082019050919050565b60006020820190508181036000830152612311816122d5565b9050919050565b7f476c6f62616c20696e646578206973206f7574206f6620626f756e6473000000600082015250565b600061234e601d83611ac3565b915061235982612318565b602082019050919050565b6000602082019050818103600083015261237d81612341565b9050919050565b7f4e487b7100000000000000000000000000000000000000000000000000000000600052603260045260246000fd5b7f4552433732313a20546f6b656e2061742074686973206164647265737320646f60008201527f6573206e6f742065786973740000000000000000000000000000000000000000602082015250565b600061240f602c83611ac3565b915061241a826123b3565b604082019050919050565b6000602082019050818103600083015261243e81612402565b9050919050565b7f4552433732313a204e46542061737369676e656420746f207a65726f2061646460008201527f7265737300000000000000000000000000000000000000000000000000000000602082015250565b60006124a1602483611ac3565b91506124ac82612445565b604082019050919050565b600060208201905081810360008301526124d081612494565b9050919050565b7f4552433732313a20617070726f766520746f2063616c6c657200000000000000600082015250565b600061250d601983611ac3565b9150612518826124d7565b602082019050919050565b6000602082019050818103600083015261253c81612500565b9050919050565b7f4552433732313a207472616e736665722063616c6c6572206973206e6f74206f60008201527f776e6572206e6f7220617070726f766564000000000000000000000000000000602082015250565b600061259f603183611ac3565b91506125aa82612543565b604082019050919050565b600060208201905081810360008301526125ce81612592565b9050919050565b7f4552433732314d657461646174613a2055524920717565727920666f72206e6f60008201527f6e6578697374656e7420746f6b656e0000000000000000000000000000000000602082015250565b6000612631602f83611ac3565b915061263c826125d5565b604082019050919050565b6000602082019050818103600083015261266081612624565b9050919050565b600081905092915050565b600061267d82611ab8565b6126878185612667565b9350612697818560208601611ad4565b80840191505092915050565b60006126af8285612672565b91506126bb8284612672565b91508190509392505050565b60006126d38284612672565b915081905092915050565b7f4572726f723a2063727970746f4d6f6e6b657920616c7265616479206578697360008201527f7473000000000000000000000000000000000000000000000000000000000000602082015250565b600061273a602283611ac3565b9150612745826126de565b604082019050919050565b600060208201905081810360008301526127698161272d565b9050919050565b7f4e487b7100000000000000000000000000000000000000000000000000000000600052601160045260246000fd5b60006127aa82611b73565b91506127b583611b73565b9250828210156127c8576127c7612770565b5b828203905092915050565b7f546f6b656e20646f6573206e6f74206578697374000000000000000000000000600082015250565b6000612809601483611ac3565b9150612814826127d3565b602082019050919050565b60006020820190508181036000830152612838816127fc565b9050919050565b7f4164647265737320726563656976696e6720746f6b656e20646f6573206e6f7460008201527f206578697374206f72206973206e6f7420636f72726563740000000000000000602082015250565b600061289b603883611ac3565b91506128a68261283f565b604082019050919050565b600060208201905081810360008301526128ca8161288e565b9050919050565b7f53656e646572206164647265737320646f6573206e6f74206f776e207468697360008201527f20746f6b656e0000000000000000000000000000000000000000000000000000602082015250565b600061292d602683611ac3565b9150612938826128d1565b604082019050919050565b6000602082019050818103600083015261295c81612920565b9050919050565b7f4552433732313a207472616e7366657220746f206e6f6e20455243373231526560008201527f63656976657220696d706c656d656e7465720000000000000000000000000000602082015250565b60006129bf603283611ac3565b91506129ca82612963565b604082019050919050565b600060208201905081810360008301526129ee816129b2565b9050919050565b6000612a0082611b73565b91507fffffffffffffffffffffffffffffffffffffffffffffffffffffffffffffffff8203612a3257612a31612770565b5b600182019050919050565b7f4e487b7100000000000000000000000000000000000000000000000000000000600052601260045260246000fd5b6000612a7782611b73565b9150612a8283611b73565b925082612a9257612a91612a3d565b5b828204905092915050565b6000612aa882611b73565b9150612ab383611b73565b925082612ac357612ac2612a3d565b5b828206905092915050565b6000612ad982611b73565b9150612ae483611b73565b9250827fffffffffffffffffffffffffffffffffffffffffffffffffffffffffffffffff03821115612b1957612b18612770565b5b828201905092915050565b600081519050919050565b600082825260208201905092915050565b6000612b4b82612b24565b612b558185612b2f565b9350612b65818560208601611ad4565b612b6e81611b07565b840191505092915050565b6000608082019050612b8e6000830187611c08565b612b9b6020830186611c08565b612ba86040830185611c9e565b8181036060830152612bba8184612b40565b905095945050505050565b600081519050612bd481611a29565b92915050565b600060208284031215612bf057612bef6119f3565b5b6000612bfe84828501612bc5565b91505092915050565b7f4552433732313a206d696e74696e6720746f207a65726f206164647265737300600082015250565b6000612c3d601f83611ac3565b9150612c4882612c07565b602082019050919050565b60006020820190508181036000830152612c6c81612c30565b9050919050565b7f4552433732313a20746f6b656e20616c72656164792065786973747300000000600082015250565b6000612ca9601c83611ac3565b9150612cb482612c73565b602082019050919050565b60006020820190508181036000830152612cd881612c9c565b9050919050565b7f536166654d6174683a205375627472616374696f6e204f766572666c6f770000600082015250565b6000612d15601e83611ac3565b9150612d2082612cdf565b602082019050919050565b60006020820190508181036000830152612d4481612d08565b905091905056fea2646970667358221220d8a5f47c8b6852c0cb3f9979e917ad14c6d507e1f5cc625e20b040c4c58292bb64736f6c634300080d0033",
  "immutableReferences": {},
  "source": "// SPDX-License-Identifier: MIT\npragma solidity ^0.8.9;\n\nimport './ERC721Connector.sol';\n\ncontract CryptoMonkey is ERC721Connector {\n\n    string[] public cryptoMonkeyz;\n\n    mapping(string => bool) _cryptoMonkeyzExists;\n\n    function mint(string memory _cryptoMonkey) public {\n        // Depricated (push no longer returns the length but the reference of the added element)\n        // uint _id =  cryptoMonkeyz.push(_cryptoMonkey);\n\n        require(!_cryptoMonkeyzExists[_cryptoMonkey], 'Error: cryptoMonkey already exists');\n        cryptoMonkeyz.push(_cryptoMonkey);\n        uint _id = cryptoMonkeyz.length - 1;        \n        _mint(msg.sender, _id);\n\n        _cryptoMonkeyzExists[_cryptoMonkey] = true;\n    }\n\n    constructor() ERC721Connector('CryptoMonkeyz', 'CMNKZ'){}\n}",
  "sourcePath": "/Users/daviddamljanovic/Documents/nft-newest/backend/src/contracts/CryptoMonkeyz.sol",
  "compiler": {
    "name": "solc",
    "version": "0.8.13+commit.abaa5c0e.Emscripten.clang"
  },
  "schemaVersion": "3.4.3",
  "updatedAt": "2022-03-19T19:42:55.443Z",
  "networkType": "ethereum",
  "devdoc": {
    "kind": "dev",
    "methods": {
      "safeTransferFrom(address,address,uint256)": {
        "details": "See {IERC721-safeTransferFrom}."
      },
      "safeTransferFrom(address,address,uint256,bytes)": {
        "details": "See {IERC721-safeTransferFrom}."
      },
      "tokenByIndex(uint256)": {
        "details": "Returns a token ID at a given `index` of all the tokens stored by the contract. Use along with {totalSupply} to enumerate all tokens."
      },
      "tokenOfOwnerByIndex(address,uint256)": {
        "details": "Returns a token ID owned by `owner` at a given `index` of its token list. Use along with {balanceOf} to enumerate all of ``owner``'s tokens."
      }
    },
    "version": 1
  },
  "userdoc": {
    "kind": "user",
    "methods": {},
    "version": 1
  }
}