{
  "contractName": "ERC721Enumerable",
  "abi": [
    {
      "anonymous": false,
      "inputs": [
        {
          "indexed": true,
          "internalType": "address",
          "name": "_owner",
          "type": "address"
        },
        {
          "indexed": true,
          "internalType": "address",
          "name": "_approved",
          "type": "address"
        },
        {
          "indexed": true,
          "internalType": "uint256",
          "name": "_tokenId",
          "type": "uint256"
        }
      ],
      "name": "Approval",
      "type": "event"
    },
    {
      "anonymous": false,
      "inputs": [
        {
          "indexed": true,
          "internalType": "address",
          "name": "_owner",
          "type": "address"
        },
        {
          "indexed": true,
          "internalType": "address",
          "name": "_operator",
          "type": "address"
        },
        {
          "indexed": false,
          "internalType": "bool",
          "name": "_approved",
          "type": "bool"
        }
      ],
      "name": "ApprovalForAll",
      "type": "event"
    },
    {
      "anonymous": false,
      "inputs": [
        {
          "indexed": true,
          "internalType": "address",
          "name": "_from",
          "type": "address"
        },
        {
          "indexed": true,
          "internalType": "address",
          "name": "_to",
          "type": "address"
        },
        {
          "indexed": true,
          "internalType": "uint256",
          "name": "_tokenId",
          "type": "uint256"
        }
      ],
      "name": "Transfer",
      "type": "event"
    },
    {
      "inputs": [
        {
          "internalType": "address",
          "name": "_to",
          "type": "address"
        },
        {
          "internalType": "uint256",
          "name": "tokenId",
          "type": "uint256"
        }
      ],
      "name": "approve",
      "outputs": [],
      "stateMutability": "nonpayable",
      "type": "function"
    },
    {
      "inputs": [
        {
          "internalType": "address",
          "name": "_owner",
          "type": "address"
        }
      ],
      "name": "balanceOf",
      "outputs": [
        {
          "internalType": "uint256",
          "name": "",
          "type": "uint256"
        }
      ],
      "stateMutability": "view",
      "type": "function"
    },
    {
      "inputs": [
        {
          "internalType": "uint256",
          "name": "tokenId",
          "type": "uint256"
        }
      ],
      "name": "getApproved",
      "outputs": [
        {
          "internalType": "address",
          "name": "",
          "type": "address"
        }
      ],
      "stateMutability": "view",
      "type": "function"
    },
    {
      "inputs": [
        {
          "internalType": "address",
          "name": "owner",
          "type": "address"
        },
        {
          "internalType": "address",
          "name": "to",
          "type": "address"
        }
      ],
      "name": "isApprovedForAll",
      "outputs": [
        {
          "internalType": "bool",
          "name": "",
          "type": "bool"
        }
      ],
      "stateMutability": "view",
      "type": "function"
    },
    {
      "inputs": [
        {
          "internalType": "uint256",
          "name": "_tokenId",
          "type": "uint256"
        }
      ],
      "name": "ownerOf",
      "outputs": [
        {
          "internalType": "address",
          "name": "",
          "type": "address"
        }
      ],
      "stateMutability": "view",
      "type": "function"
    },
    {
      "inputs": [
        {
          "internalType": "address",
          "name": "_from",
          "type": "address"
        },
        {
          "internalType": "address",
          "name": "_to",
          "type": "address"
        },
        {
          "internalType": "uint256",
          "name": "_tokenId",
          "type": "uint256"
        }
      ],
      "name": "safeTransferFrom",
      "outputs": [],
      "stateMutability": "nonpayable",
      "type": "function"
    },
    {
      "inputs": [
        {
          "internalType": "address",
          "name": "_from",
          "type": "address"
        },
        {
          "internalType": "address",
          "name": "_to",
          "type": "address"
        },
        {
          "internalType": "uint256",
          "name": "_tokenId",
          "type": "uint256"
        },
        {
          "internalType": "bytes",
          "name": "data",
          "type": "bytes"
        }
      ],
      "name": "safeTransferFrom",
      "outputs": [],
      "stateMutability": "nonpayable",
      "type": "function"
    },
    {
      "inputs": [
        {
          "internalType": "address",
          "name": "to",
          "type": "address"
        },
        {
          "internalType": "bool",
          "name": "approved",
          "type": "bool"
        }
      ],
      "name": "setApprovalForAll",
      "outputs": [],
      "stateMutability": "nonpayable",
      "type": "function"
    },
    {
      "inputs": [
        {
          "internalType": "bytes4",
          "name": "interfaceId",
          "type": "bytes4"
        }
      ],
      "name": "supportsInterface",
      "outputs": [
        {
          "internalType": "bool",
          "name": "",
          "type": "bool"
        }
      ],
      "stateMutability": "view",
      "type": "function"
    },
    {
      "inputs": [
        {
          "internalType": "uint256",
          "name": "_tokenId",
          "type": "uint256"
        }
      ],
      "name": "tokenURI",
      "outputs": [
        {
          "internalType": "string",
          "name": "",
          "type": "string"
        }
      ],
      "stateMutability": "view",
      "type": "function"
    },
    {
      "inputs": [
        {
          "internalType": "address",
          "name": "_from",
          "type": "address"
        },
        {
          "internalType": "address",
          "name": "_to",
          "type": "address"
        },
        {
          "internalType": "uint256",
          "name": "_tokenId",
          "type": "uint256"
        }
      ],
      "name": "transferFrom",
      "outputs": [],
      "stateMutability": "nonpayable",
      "type": "function"
    },
    {
      "inputs": [],
      "name": "totalSupply",
      "outputs": [
        {
          "internalType": "uint256",
          "name": "",
          "type": "uint256"
        }
      ],
      "stateMutability": "view",
      "type": "function"
    },
    {
      "inputs": [
        {
          "internalType": "uint256",
          "name": "index",
          "type": "uint256"
        }
      ],
      "name": "tokenByIndex",
      "outputs": [
        {
          "internalType": "uint256",
          "name": "",
          "type": "uint256"
        }
      ],
      "stateMutability": "view",
      "type": "function"
    },
    {
      "inputs": [
        {
          "internalType": "address",
          "name": "owner",
          "type": "address"
        },
        {
          "internalType": "uint256",
          "name": "index",
          "type": "uint256"
        }
      ],
      "name": "tokenOfOwnerByIndex",
      "outputs": [
        {
          "internalType": "uint256",
          "name": "",
          "type": "uint256"
        }
      ],
      "stateMutability": "view",
      "type": "function"
    }
  ],
  "bytecode": "0x608060405234801561001057600080fd5b506100407f01ffc9a7a5cef8baa21ed3c5c0d7e23accb804b619e9333b597f47a0d84076e261004560201b60201c565b6100b1565b6001600080837bffffffffffffffffffffffffffffffffffffffffffffffffffffffff19167bffffffffffffffffffffffffffffffffffffffffffffffffffffffff1916815260200190815260200160002060006101000a81548160ff02191690831515021790555050565b6122f9806100c06000396000f3fe608060405234801561001057600080fd5b50600436106100ea5760003560e01c80634f6ccce71161008c578063a22cb46511610066578063a22cb46514610281578063b88d4fde1461029d578063c87b56dd146102b9578063e985e9c5146102e9576100ea565b80634f6ccce7146101f15780636352211e1461022157806370a0823114610251576100ea565b806318160ddd116100c857806318160ddd1461016b57806323b872dd146101895780632f745c59146101a557806342842e0e146101d5576100ea565b806301ffc9a7146100ef578063081812fc1461011f578063095ea7b31461014f575b600080fd5b61010960048036038101906101049190611303565b610319565b604051610116919061134b565b60405180910390f35b6101396004803603810190610134919061139c565b610380565b604051610146919061140a565b60405180910390f35b61016960048036038101906101649190611451565b610405565b005b6101736105a1565b60405161018091906114a0565b60405180910390f35b6101a3600480360381019061019e91906114bb565b6105ae565b005b6101bf60048036038101906101ba9190611451565b6105d1565b6040516101cc91906114a0565b60405180910390f35b6101ef60048036038101906101ea91906114bb565b610676565b005b61020b6004803603810190610206919061139c565b610696565b60405161021891906114a0565b60405180910390f35b61023b6004803603810190610236919061139c565b610707565b604051610248919061140a565b60405180910390f35b61026b6004803603810190610266919061150e565b6107b9565b60405161027891906114a0565b60405180910390f35b61029b60048036038101906102969190611567565b610871565b005b6102b760048036038101906102b291906116ed565b6109dd565b005b6102d360048036038101906102ce919061139c565b610a38565b6040516102e091906117f8565b60405180910390f35b61030360048036038101906102fe919061181a565b610adf565b604051610310919061134b565b60405180910390f35b6000806000837bffffffffffffffffffffffffffffffffffffffffffffffffffffffff19167bffffffffffffffffffffffffffffffffffffffffffffffffffffffff1916815260200190815260200160002060009054906101000a900460ff169050919050565b600061038b82610b73565b6103ca576040517f08c379a00000000000000000000000000000000000000000000000000000000081526004016103c1906118cc565b60405180910390fd5b6003600083815260200190815260200160002060009054906101000a900473ffffffffffffffffffffffffffffffffffffffff169050919050565b600061041082610707565b90508073ffffffffffffffffffffffffffffffffffffffff163373ffffffffffffffffffffffffffffffffffffffff1614610480576040517f08c379a00000000000000000000000000000000000000000000000000000000081526004016104779061195e565b60405180910390fd5b8073ffffffffffffffffffffffffffffffffffffffff168373ffffffffffffffffffffffffffffffffffffffff1614156104ef576040517f08c379a00000000000000000000000000000000000000000000000000000000081526004016104e6906119f0565b60405180910390fd5b826003600084815260200190815260200160002060006101000a81548173ffffffffffffffffffffffffffffffffffffffff021916908373ffffffffffffffffffffffffffffffffffffffff160217905550818373ffffffffffffffffffffffffffffffffffffffff168273ffffffffffffffffffffffffffffffffffffffff167f8c5be1e5ebec7d5bd14f71427d1e84f3dd0314c0f7b2291e5b200ac8c7c3b92560405160405180910390a4505050565b6000600580549050905090565b6105b83382610be5565b6105c157600080fd5b6105cc838383610cc3565b505050565b60006105dc836107b9565b821061061d576040517f08c379a000000000000000000000000000000000000000000000000000000000815260040161061490611a5c565b60405180910390fd5b600760008473ffffffffffffffffffffffffffffffffffffffff1673ffffffffffffffffffffffffffffffffffffffff168152602001908152602001600020600083815260200190815260200160002054905092915050565b610691838383604051806020016040528060008152506109dd565b505050565b60006106a06105a1565b82106106e1576040517f08c379a00000000000000000000000000000000000000000000000000000000081526004016106d890611ac8565b60405180910390fd5b600582815481106106f5576106f4611ae8565b5b90600052602060002001549050919050565b6000806001600084815260200190815260200160002060009054906101000a900473ffffffffffffffffffffffffffffffffffffffff169050600073ffffffffffffffffffffffffffffffffffffffff168173ffffffffffffffffffffffffffffffffffffffff1614156107b0576040517f08c379a00000000000000000000000000000000000000000000000000000000081526004016107a790611b89565b60405180910390fd5b80915050919050565b60008073ffffffffffffffffffffffffffffffffffffffff168273ffffffffffffffffffffffffffffffffffffffff16141561082a576040517f08c379a000000000000000000000000000000000000000000000000000000000815260040161082190611c1b565b60405180910390fd5b600260008373ffffffffffffffffffffffffffffffffffffffff1673ffffffffffffffffffffffffffffffffffffffff168152602001908152602001600020549050919050565b3373ffffffffffffffffffffffffffffffffffffffff168273ffffffffffffffffffffffffffffffffffffffff1614156108e0576040517f08c379a00000000000000000000000000000000000000000000000000000000081526004016108d790611c87565b60405180910390fd5b80600460003373ffffffffffffffffffffffffffffffffffffffff1673ffffffffffffffffffffffffffffffffffffffff16815260200190815260200160002060008473ffffffffffffffffffffffffffffffffffffffff1673ffffffffffffffffffffffffffffffffffffffff16815260200190815260200160002060006101000a81548160ff0219169083151502179055508173ffffffffffffffffffffffffffffffffffffffff163373ffffffffffffffffffffffffffffffffffffffff167f17307eab39ab6107e8899845ad3d59bd9653f200f220920489ca2b5937696c31836040516109d1919061134b565b60405180910390a35050565b6109e73383610be5565b610a26576040517f08c379a0000000000000000000000000000000000000000000000000000000008152600401610a1d90611d19565b60405180910390fd5b610a3284848484610f40565b50505050565b6060610a4382610b73565b610a82576040517f08c379a0000000000000000000000000000000000000000000000000000000008152600401610a7990611dab565b60405180910390fd5b6000610a8c610f9c565b90506000815111610aac5760405180602001604052806000815250610ad7565b80610ab684610fb3565b604051602001610ac7929190611e07565b6040516020818303038152906040525b915050919050565b6000600460008473ffffffffffffffffffffffffffffffffffffffff1673ffffffffffffffffffffffffffffffffffffffff16815260200190815260200160002060008373ffffffffffffffffffffffffffffffffffffffff1673ffffffffffffffffffffffffffffffffffffffff16815260200190815260200160002060009054906101000a900460ff16905092915050565b6000806001600084815260200190815260200160002060009054906101000a900473ffffffffffffffffffffffffffffffffffffffff169050600073ffffffffffffffffffffffffffffffffffffffff168173ffffffffffffffffffffffffffffffffffffffff161415915050919050565b6000610bf082610b73565b610c2f576040517f08c379a0000000000000000000000000000000000000000000000000000000008152600401610c2690611e77565b60405180910390fd5b6000610c3a83610707565b90508073ffffffffffffffffffffffffffffffffffffffff168473ffffffffffffffffffffffffffffffffffffffff161480610ca957508373ffffffffffffffffffffffffffffffffffffffff16610c9184610380565b73ffffffffffffffffffffffffffffffffffffffff16145b80610cba5750610cb98185610adf565b5b91505092915050565b600073ffffffffffffffffffffffffffffffffffffffff168273ffffffffffffffffffffffffffffffffffffffff161415610d33576040517f08c379a0000000000000000000000000000000000000000000000000000000008152600401610d2a90611f09565b60405180910390fd5b8273ffffffffffffffffffffffffffffffffffffffff166001600083815260200190815260200160002060009054906101000a900473ffffffffffffffffffffffffffffffffffffffff1673ffffffffffffffffffffffffffffffffffffffff1614610dd4576040517f08c379a0000000000000000000000000000000000000000000000000000000008152600401610dcb90611f9b565b60405180910390fd5b816001600083815260200190815260200160002060006101000a81548173ffffffffffffffffffffffffffffffffffffffff021916908373ffffffffffffffffffffffffffffffffffffffff1602179055506001600260008573ffffffffffffffffffffffffffffffffffffffff1673ffffffffffffffffffffffffffffffffffffffff1681526020019081526020016000206000828254610e769190611fea565b925050819055506001600260008473ffffffffffffffffffffffffffffffffffffffff1673ffffffffffffffffffffffffffffffffffffffff1681526020019081526020016000206000828254610ecd919061201e565b92505081905550808273ffffffffffffffffffffffffffffffffffffffff168473ffffffffffffffffffffffffffffffffffffffff167fddf252ad1be2c89b69c2b068fc378daa952ba7f163c4a11628f55a4df523b3ef60405160405180910390a4610f3b60008383611114565b505050565b610f4b848484610cc3565b610f5784848484611119565b610f96576040517f08c379a0000000000000000000000000000000000000000000000000000000008152600401610f8d906120e6565b60405180910390fd5b50505050565b606060405180602001604052806000815250905090565b60606000821415610ffb576040518060400160405280600181526020017f3000000000000000000000000000000000000000000000000000000000000000815250905061110f565b600082905060005b6000821461102d57808061101690612106565b915050600a82611026919061217e565b9150611003565b60008167ffffffffffffffff811115611049576110486115c2565b5b6040519080825280601f01601f19166020018201604052801561107b5781602001600182028036833780820191505090505b5090505b60008514611108576001826110949190611fea565b9150600a856110a391906121af565b60306110af919061201e565b60f81b8183815181106110c5576110c4611ae8565b5b60200101907effffffffffffffffffffffffffffffffffffffffffffffffffffffffffffff1916908160001a905350600a85611101919061217e565b945061107f565b8093505050505b919050565b505050565b600061112484611284565b15611277578373ffffffffffffffffffffffffffffffffffffffff1663150b7a02338786866040518563ffffffff1660e01b81526004016111689493929190612235565b6020604051808303816000875af19250505080156111a457506040513d601f19601f820116820180604052508101906111a19190612296565b60015b611227573d80600081146111d4576040519150601f19603f3d011682016040523d82523d6000602084013e6111d9565b606091505b5060008151141561121f576040517f08c379a0000000000000000000000000000000000000000000000000000000008152600401611216906120e6565b60405180910390fd5b805181602001fd5b63150b7a0260e01b7bffffffffffffffffffffffffffffffffffffffffffffffffffffffff1916817bffffffffffffffffffffffffffffffffffffffffffffffffffffffff19161491505061127c565b600190505b949350505050565b600080823b905060008111915050919050565b6000604051905090565b600080fd5b600080fd5b60007fffffffff0000000000000000000000000000000000000000000000000000000082169050919050565b6112e0816112ab565b81146112eb57600080fd5b50565b6000813590506112fd816112d7565b92915050565b600060208284031215611319576113186112a1565b5b6000611327848285016112ee565b91505092915050565b60008115159050919050565b61134581611330565b82525050565b6000602082019050611360600083018461133c565b92915050565b6000819050919050565b61137981611366565b811461138457600080fd5b50565b60008135905061139681611370565b92915050565b6000602082840312156113b2576113b16112a1565b5b60006113c084828501611387565b91505092915050565b600073ffffffffffffffffffffffffffffffffffffffff82169050919050565b60006113f4826113c9565b9050919050565b611404816113e9565b82525050565b600060208201905061141f60008301846113fb565b92915050565b61142e816113e9565b811461143957600080fd5b50565b60008135905061144b81611425565b92915050565b60008060408385031215611468576114676112a1565b5b60006114768582860161143c565b925050602061148785828601611387565b9150509250929050565b61149a81611366565b82525050565b60006020820190506114b56000830184611491565b92915050565b6000806000606084860312156114d4576114d36112a1565b5b60006114e28682870161143c565b93505060206114f38682870161143c565b925050604061150486828701611387565b9150509250925092565b600060208284031215611524576115236112a1565b5b60006115328482850161143c565b91505092915050565b61154481611330565b811461154f57600080fd5b50565b6000813590506115618161153b565b92915050565b6000806040838503121561157e5761157d6112a1565b5b600061158c8582860161143c565b925050602061159d85828601611552565b9150509250929050565b600080fd5b600080fd5b6000601f19601f8301169050919050565b7f4e487b7100000000000000000000000000000000000000000000000000000000600052604160045260246000fd5b6115fa826115b1565b810181811067ffffffffffffffff82111715611619576116186115c2565b5b80604052505050565b600061162c611297565b905061163882826115f1565b919050565b600067ffffffffffffffff821115611658576116576115c2565b5b611661826115b1565b9050602081019050919050565b82818337600083830152505050565b600061169061168b8461163d565b611622565b9050828152602081018484840111156116ac576116ab6115ac565b5b6116b784828561166e565b509392505050565b600082601f8301126116d4576116d36115a7565b5b81356116e484826020860161167d565b91505092915050565b60008060008060808587031215611707576117066112a1565b5b60006117158782880161143c565b94505060206117268782880161143c565b935050604061173787828801611387565b925050606085013567ffffffffffffffff811115611758576117576112a6565b5b611764878288016116bf565b91505092959194509250565b600081519050919050565b600082825260208201905092915050565b60005b838110156117aa57808201518184015260208101905061178f565b838111156117b9576000848401525b50505050565b60006117ca82611770565b6117d4818561177b565b93506117e481856020860161178c565b6117ed816115b1565b840191505092915050565b6000602082019050818103600083015261181281846117bf565b905092915050565b60008060408385031215611831576118306112a1565b5b600061183f8582860161143c565b92505060206118508582860161143c565b9150509250929050565b7f4552433732313a20617070726f76656420717565727920666f72206e6f6e657860008201527f697374656e7420746f6b656e0000000000000000000000000000000000000000602082015250565b60006118b6602c8361177b565b91506118c18261185a565b604082019050919050565b600060208201905081810360008301526118e5816118a9565b9050919050565b7f43757272656e742063616c6c6572206973206e6f7420746865206f776e65722060008201527f6f662074686520636f6e74726163740000000000000000000000000000000000602082015250565b6000611948602f8361177b565b9150611953826118ec565b604082019050919050565b600060208201905081810360008301526119778161193b565b9050919050565b7f417070726f76616c206f6620746f6b656e7320746f2063757272656e74206f7760008201527f6e6572206973206e6f7420616c6c6f7765640000000000000000000000000000602082015250565b60006119da60328361177b565b91506119e58261197e565b604082019050919050565b60006020820190508181036000830152611a09816119cd565b9050919050565b7f4f776e657220696e646578206973206f7574206f6620626f756e647300000000600082015250565b6000611a46601c8361177b565b9150611a5182611a10565b602082019050919050565b60006020820190508181036000830152611a7581611a39565b9050919050565b7f476c6f62616c20696e646578206973206f7574206f6620626f756e6473000000600082015250565b6000611ab2601d8361177b565b9150611abd82611a7c565b602082019050919050565b60006020820190508181036000830152611ae181611aa5565b9050919050565b7f4e487b7100000000000000000000000000000000000000000000000000000000600052603260045260246000fd5b7f4552433732313a20546f6b656e2061742074686973206164647265737320646f60008201527f6573206e6f742065786973740000000000000000000000000000000000000000602082015250565b6000611b73602c8361177b565b9150611b7e82611b17565b604082019050919050565b60006020820190508181036000830152611ba281611b66565b9050919050565b7f4552433732313a204e46542061737369676e656420746f207a65726f2061646460008201527f7265737300000000000000000000000000000000000000000000000000000000602082015250565b6000611c0560248361177b565b9150611c1082611ba9565b604082019050919050565b60006020820190508181036000830152611c3481611bf8565b9050919050565b7f4552433732313a20617070726f766520746f2063616c6c657200000000000000600082015250565b6000611c7160198361177b565b9150611c7c82611c3b565b602082019050919050565b60006020820190508181036000830152611ca081611c64565b9050919050565b7f4552433732313a207472616e736665722063616c6c6572206973206e6f74206f60008201527f776e6572206e6f7220617070726f766564000000000000000000000000000000602082015250565b6000611d0360318361177b565b9150611d0e82611ca7565b604082019050919050565b60006020820190508181036000830152611d3281611cf6565b9050919050565b7f4552433732314d657461646174613a2055524920717565727920666f72206e6f60008201527f6e6578697374656e7420746f6b656e0000000000000000000000000000000000602082015250565b6000611d95602f8361177b565b9150611da082611d39565b604082019050919050565b60006020820190508181036000830152611dc481611d88565b9050919050565b600081905092915050565b6000611de182611770565b611deb8185611dcb565b9350611dfb81856020860161178c565b80840191505092915050565b6000611e138285611dd6565b9150611e1f8284611dd6565b91508190509392505050565b7f546f6b656e20646f6573206e6f74206578697374000000000000000000000000600082015250565b6000611e6160148361177b565b9150611e6c82611e2b565b602082019050919050565b60006020820190508181036000830152611e9081611e54565b9050919050565b7f4164647265737320726563656976696e6720746f6b656e20646f6573206e6f7460008201527f206578697374206f72206973206e6f7420636f72726563740000000000000000602082015250565b6000611ef360388361177b565b9150611efe82611e97565b604082019050919050565b60006020820190508181036000830152611f2281611ee6565b9050919050565b7f53656e646572206164647265737320646f6573206e6f74206f776e207468697360008201527f20746f6b656e0000000000000000000000000000000000000000000000000000602082015250565b6000611f8560268361177b565b9150611f9082611f29565b604082019050919050565b60006020820190508181036000830152611fb481611f78565b9050919050565b7f4e487b7100000000000000000000000000000000000000000000000000000000600052601160045260246000fd5b6000611ff582611366565b915061200083611366565b92508282101561201357612012611fbb565b5b828203905092915050565b600061202982611366565b915061203483611366565b9250827fffffffffffffffffffffffffffffffffffffffffffffffffffffffffffffffff0382111561206957612068611fbb565b5b828201905092915050565b7f4552433732313a207472616e7366657220746f206e6f6e20455243373231526560008201527f63656976657220696d706c656d656e7465720000000000000000000000000000602082015250565b60006120d060328361177b565b91506120db82612074565b604082019050919050565b600060208201905081810360008301526120ff816120c3565b9050919050565b600061211182611366565b91507fffffffffffffffffffffffffffffffffffffffffffffffffffffffffffffffff82141561214457612143611fbb565b5b600182019050919050565b7f4e487b7100000000000000000000000000000000000000000000000000000000600052601260045260246000fd5b600061218982611366565b915061219483611366565b9250826121a4576121a361214f565b5b828204905092915050565b60006121ba82611366565b91506121c583611366565b9250826121d5576121d461214f565b5b828206905092915050565b600081519050919050565b600082825260208201905092915050565b6000612207826121e0565b61221181856121eb565b935061222181856020860161178c565b61222a816115b1565b840191505092915050565b600060808201905061224a60008301876113fb565b61225760208301866113fb565b6122646040830185611491565b818103606083015261227681846121fc565b905095945050505050565b600081519050612290816112d7565b92915050565b6000602082840312156122ac576122ab6112a1565b5b60006122ba84828501612281565b9150509291505056fea264697066735822122011a1c7ce4a7f74891cf2c9d00318ed056f3b4f71756764da30f9056e3d84d08b64736f6c634300080c0033",
  "immutableReferences": {},
  "source": "// SPDX-License-Identifier: MIT\npragma solidity ^0.8.9;\n\nimport './ERC721.sol';\nimport './interfaces/IERC721Enummerable.sol';\n\ncontract ERC721Enumerable is ERC721, IERC721Enummerable{\n\n    uint256[] private _allTokens;\n\n    // mapping from tokenId to position in _allTokens array\n    mapping(uint256 => uint256) private _allTokensIndex;\n\n    // mapping of owner to list of all owner ids\n    mapping(address => mapping(uint256 => uint256)) private _ownedTokens;\n\n    // mapping from token id to position in the allTokens array\n    mapping(uint256 => uint256) private _ownedTokensIndex;\n\n    function totalSupply() public view returns (uint256) {\n        return _allTokens.length;\n    }\n \n    //function tokenByIndex(uint256 _index) external view returns (uint256);\n\n    //function tokenOfOwnerByIndex(address _owner, uint256 _index) external view returns (uint256);\n\n    function _mint(address to, uint256 tokenId) internal override(ERC721) {\n        super._mint(to, tokenId);\n\n        _addTokenToAllTokenEnumeration(tokenId);\n        _addTokenToOwnerEnumeration(to, tokenId);\n    }\n\n    function _addTokenToAllTokenEnumeration(uint256 tokenId) private {\n        //Adding tokenId of the current index within allTokensIndex mapping to a length of all tokens array \n        _allTokensIndex[tokenId] = _allTokens.length;\n        _allTokens.push(tokenId);\n    }\n\n    function _addTokenToOwnerEnumeration(address to, uint256 tokenId) private {\n        //1. add address and tokenId to the _ownedTokens\n        uint256 length = balanceOf(to);\n        _ownedTokens[to][length] = tokenId;\n        _ownedTokensIndex[tokenId] = length;\n    }\n\n    function tokenByIndex(uint256 index) public view returns(uint256) {\n        require(index < totalSupply(), 'Global index is out of bounds');\n        return _allTokens[index];\n    }\n\n    function tokenOfOwnerByIndex(address owner, uint index) public view returns(uint256) {\n        require(index < balanceOf(owner), 'Owner index is out of bounds');\n        return _ownedTokens[owner][index];\n    }\n} ",
  "sourcePath": "/Users/daviddamljanovic/Documents/nft-newest/backend/src/contracts/ERC721Enumerable.sol",
  "compiler": {
    "name": "solc",
    "version": "0.8.12+commit.f00d7308.Emscripten.clang"
  },
  "schemaVersion": "3.4.3",
  "updatedAt": "2022-03-10T16:52:57.152Z",
  "devdoc": {
    "kind": "dev",
    "methods": {
      "safeTransferFrom(address,address,uint256)": {
        "details": "See {IERC721-safeTransferFrom}."
      },
      "safeTransferFrom(address,address,uint256,bytes)": {
        "details": "See {IERC721-safeTransferFrom}."
      },
      "tokenByIndex(uint256)": {
        "details": "Returns a token ID at a given `index` of all the tokens stored by the contract. Use along with {totalSupply} to enumerate all tokens."
      },
      "tokenOfOwnerByIndex(address,uint256)": {
        "details": "Returns a token ID owned by `owner` at a given `index` of its token list. Use along with {balanceOf} to enumerate all of ``owner``'s tokens."
      }
    },
    "version": 1
  },
  "userdoc": {
    "kind": "user",
    "methods": {},
    "version": 1
  }
}