{
  "contractName": "CryptoMonkey",
  "abi": [
    {
      "inputs": [],
      "stateMutability": "nonpayable",
      "type": "constructor"
    },
    {
      "anonymous": false,
      "inputs": [
        {
          "indexed": true,
          "internalType": "address",
          "name": "_owner",
          "type": "address"
        },
        {
          "indexed": true,
          "internalType": "address",
          "name": "_approved",
          "type": "address"
        },
        {
          "indexed": true,
          "internalType": "uint256",
          "name": "_tokenId",
          "type": "uint256"
        }
      ],
      "name": "Approval",
      "type": "event"
    },
    {
      "anonymous": false,
      "inputs": [
        {
          "indexed": true,
          "internalType": "address",
          "name": "_owner",
          "type": "address"
        },
        {
          "indexed": true,
          "internalType": "address",
          "name": "_operator",
          "type": "address"
        },
        {
          "indexed": false,
          "internalType": "bool",
          "name": "_approved",
          "type": "bool"
        }
      ],
      "name": "ApprovalForAll",
      "type": "event"
    },
    {
      "anonymous": false,
      "inputs": [
        {
          "indexed": true,
          "internalType": "address",
          "name": "_from",
          "type": "address"
        },
        {
          "indexed": true,
          "internalType": "address",
          "name": "_to",
          "type": "address"
        },
        {
          "indexed": true,
          "internalType": "uint256",
          "name": "_tokenId",
          "type": "uint256"
        }
      ],
      "name": "Transfer",
      "type": "event"
    },
    {
      "inputs": [
        {
          "internalType": "address",
          "name": "_to",
          "type": "address"
        },
        {
          "internalType": "uint256",
          "name": "tokenId",
          "type": "uint256"
        }
      ],
      "name": "approve",
      "outputs": [],
      "stateMutability": "nonpayable",
      "type": "function"
    },
    {
      "inputs": [
        {
          "internalType": "address",
          "name": "_owner",
          "type": "address"
        }
      ],
      "name": "balanceOf",
      "outputs": [
        {
          "internalType": "uint256",
          "name": "",
          "type": "uint256"
        }
      ],
      "stateMutability": "view",
      "type": "function",
      "constant": true
    },
    {
      "inputs": [
        {
          "internalType": "uint256",
          "name": "",
          "type": "uint256"
        }
      ],
      "name": "cryptoMonkeyz",
      "outputs": [
        {
          "internalType": "string",
          "name": "",
          "type": "string"
        }
      ],
      "stateMutability": "view",
      "type": "function",
      "constant": true
    },
    {
      "inputs": [
        {
          "internalType": "uint256",
          "name": "tokenId",
          "type": "uint256"
        }
      ],
      "name": "getApproved",
      "outputs": [
        {
          "internalType": "address",
          "name": "",
          "type": "address"
        }
      ],
      "stateMutability": "view",
      "type": "function",
      "constant": true
    },
    {
      "inputs": [
        {
          "internalType": "address",
          "name": "owner",
          "type": "address"
        },
        {
          "internalType": "address",
          "name": "to",
          "type": "address"
        }
      ],
      "name": "isApprovedForAll",
      "outputs": [
        {
          "internalType": "bool",
          "name": "",
          "type": "bool"
        }
      ],
      "stateMutability": "view",
      "type": "function",
      "constant": true
    },
    {
      "inputs": [],
      "name": "name",
      "outputs": [
        {
          "internalType": "string",
          "name": "",
          "type": "string"
        }
      ],
      "stateMutability": "view",
      "type": "function",
      "constant": true
    },
    {
      "inputs": [
        {
          "internalType": "uint256",
          "name": "_tokenId",
          "type": "uint256"
        }
      ],
      "name": "ownerOf",
      "outputs": [
        {
          "internalType": "address",
          "name": "",
          "type": "address"
        }
      ],
      "stateMutability": "view",
      "type": "function",
      "constant": true
    },
    {
      "inputs": [
        {
          "internalType": "address",
          "name": "_from",
          "type": "address"
        },
        {
          "internalType": "address",
          "name": "_to",
          "type": "address"
        },
        {
          "internalType": "uint256",
          "name": "_tokenId",
          "type": "uint256"
        }
      ],
      "name": "safeTransferFrom",
      "outputs": [],
      "stateMutability": "nonpayable",
      "type": "function"
    },
    {
      "inputs": [
        {
          "internalType": "address",
          "name": "_from",
          "type": "address"
        },
        {
          "internalType": "address",
          "name": "_to",
          "type": "address"
        },
        {
          "internalType": "uint256",
          "name": "_tokenId",
          "type": "uint256"
        },
        {
          "internalType": "bytes",
          "name": "data",
          "type": "bytes"
        }
      ],
      "name": "safeTransferFrom",
      "outputs": [],
      "stateMutability": "nonpayable",
      "type": "function"
    },
    {
      "inputs": [
        {
          "internalType": "address",
          "name": "to",
          "type": "address"
        },
        {
          "internalType": "bool",
          "name": "approved",
          "type": "bool"
        }
      ],
      "name": "setApprovalForAll",
      "outputs": [],
      "stateMutability": "nonpayable",
      "type": "function"
    },
    {
      "inputs": [
        {
          "internalType": "bytes4",
          "name": "interfaceId",
          "type": "bytes4"
        }
      ],
      "name": "supportsInterface",
      "outputs": [
        {
          "internalType": "bool",
          "name": "",
          "type": "bool"
        }
      ],
      "stateMutability": "view",
      "type": "function",
      "constant": true
    },
    {
      "inputs": [],
      "name": "symbol",
      "outputs": [
        {
          "internalType": "string",
          "name": "",
          "type": "string"
        }
      ],
      "stateMutability": "view",
      "type": "function",
      "constant": true
    },
    {
      "inputs": [
        {
          "internalType": "uint256",
          "name": "index",
          "type": "uint256"
        }
      ],
      "name": "tokenByIndex",
      "outputs": [
        {
          "internalType": "uint256",
          "name": "",
          "type": "uint256"
        }
      ],
      "stateMutability": "view",
      "type": "function",
      "constant": true
    },
    {
      "inputs": [
        {
          "internalType": "address",
          "name": "owner",
          "type": "address"
        },
        {
          "internalType": "uint256",
          "name": "index",
          "type": "uint256"
        }
      ],
      "name": "tokenOfOwnerByIndex",
      "outputs": [
        {
          "internalType": "uint256",
          "name": "",
          "type": "uint256"
        }
      ],
      "stateMutability": "view",
      "type": "function",
      "constant": true
    },
    {
      "inputs": [
        {
          "internalType": "uint256",
          "name": "_tokenId",
          "type": "uint256"
        }
      ],
      "name": "tokenURI",
      "outputs": [
        {
          "internalType": "string",
          "name": "",
          "type": "string"
        }
      ],
      "stateMutability": "view",
      "type": "function",
      "constant": true
    },
    {
      "inputs": [],
      "name": "totalSupply",
      "outputs": [
        {
          "internalType": "uint256",
          "name": "",
          "type": "uint256"
        }
      ],
      "stateMutability": "view",
      "type": "function",
      "constant": true
    },
    {
      "inputs": [
        {
          "internalType": "address",
          "name": "_from",
          "type": "address"
        },
        {
          "internalType": "address",
          "name": "_to",
          "type": "address"
        },
        {
          "internalType": "uint256",
          "name": "_tokenId",
          "type": "uint256"
        }
      ],
      "name": "transferFrom",
      "outputs": [],
      "stateMutability": "nonpayable",
      "type": "function"
    },
    {
      "inputs": [
        {
          "internalType": "string",
          "name": "_cryptoMonkey",
          "type": "string"
        }
      ],
      "name": "mint",
      "outputs": [],
      "stateMutability": "nonpayable",
      "type": "function"
    }
  ],
  "bytecode": "0x60806040523480156200001157600080fd5b506040518060400160405280600d81526020017f43727970746f4d6f6e6b65797a000000000000000000000000000000000000008152506040518060400160405280600581526020017f434d4e4b5a0000000000000000000000000000000000000000000000000000008152508181620000b17f01ffc9a7a5cef8baa21ed3c5c0d7e23accb804b619e9333b597f47a0d84076e2620002a360201b60201c565b620001f27fe0c9b09697cad3aa3f2bcb7fdd781becaefa478990b24e83d3bfdb65623d77537f5af227006b8981efabb10af200ab71f08976cbce54b4c59ae5c97811d19a398c7f90dba0bef8387ab29f95a1abead857c8ccc338f1038f6fa159fa78fd18aff9f77f8c51fd5fcf1f456ec4eb0f32f68d83471264fe082fac12bcbfd2fa4be9eed6c77f22c82707ba960a14c7592ffb6b8cfaa073fed0048a84cc7fa41f6b5bd8e7f2e47fff7341469d1032a8961cef465667653e12d730d214ab8054eee793eb8c0993d87f1cf138a85b0e62e7e98a8302d9c9eb9460c8ba52e5da3c28daff2b626089dd8d7f3a6eb71757dfc6e784c1459d26270140c2c147d95ca985c80026fc5301c3eca17f8a7e378434598edc36d108689a030cbc9d7d465de4f74c71bae1028eed6a881b1818181818181818620002a360201b60201c565b81600190805190602001906200020a9291906200030f565b508060029080519060200190620002239291906200030f565b5050506200029b7f6da5e1284143cdd2d15038a59bde3be031250f00291d64494c12d967b3a4e0c37f8230223f691b981717299fae9549350a0d894555723531f02108b1f522c1a7977fc53637662700e6c65104059db8bba34439e0c32483ab7c34e3ccae52c73954951818620002a360201b60201c565b505062000424565b6001600080837bffffffffffffffffffffffffffffffffffffffffffffffffffffffff19167bffffffffffffffffffffffffffffffffffffffffffffffffffffffff1916815260200190815260200160002060006101000a81548160ff02191690831515021790555050565b8280546200031d90620003ee565b90600052602060002090601f0160209004810192826200034157600085556200038d565b82601f106200035c57805160ff19168380011785556200038d565b828001600101855582156200038d579182015b828111156200038c5782518255916020019190600101906200036f565b5b5090506200039c9190620003a0565b5090565b5b80821115620003bb576000816000905550600101620003a1565b5090565b7f4e487b7100000000000000000000000000000000000000000000000000000000600052602260045260246000fd5b600060028204905060018216806200040757607f821691505b602082108114156200041e576200041d620003bf565b5b50919050565b612c9a80620004346000396000f3fe608060405234801561001057600080fd5b50600436106101165760003560e01c80636352211e116100a2578063b88d4fde11610071578063b88d4fde14610305578063c87b56dd14610321578063d3261c9e14610351578063d85d3d2714610381578063e985e9c51461039d57610116565b80636352211e1461026b57806370a082311461029b57806395d89b41146102cb578063a22cb465146102e957610116565b806318160ddd116100e957806318160ddd146101b557806323b872dd146101d35780632f745c59146101ef57806342842e0e1461021f5780634f6ccce71461023b57610116565b806301ffc9a71461011b57806306fdde031461014b578063081812fc14610169578063095ea7b314610199575b600080fd5b610135600480360381019061013091906119d8565b6103cd565b6040516101429190611a20565b60405180910390f35b610153610434565b6040516101609190611ad4565b60405180910390f35b610183600480360381019061017e9190611b2c565b6104c6565b6040516101909190611b9a565b60405180910390f35b6101b360048036038101906101ae9190611be1565b61054b565b005b6101bd6106e7565b6040516101ca9190611c30565b60405180910390f35b6101ed60048036038101906101e89190611c4b565b6106f4565b005b61020960048036038101906102049190611be1565b610717565b6040516102169190611c30565b60405180910390f35b61023960048036038101906102349190611c4b565b6107bc565b005b61025560048036038101906102509190611b2c565b6107dc565b6040516102629190611c30565b60405180910390f35b61028560048036038101906102809190611b2c565b61084d565b6040516102929190611b9a565b60405180910390f35b6102b560048036038101906102b09190611c9e565b6108ff565b6040516102c29190611c30565b60405180910390f35b6102d36109b7565b6040516102e09190611ad4565b60405180910390f35b61030360048036038101906102fe9190611cf7565b610a49565b005b61031f600480360381019061031a9190611e6c565b610bb5565b005b61033b60048036038101906103369190611b2c565b610c10565b6040516103489190611ad4565b60405180910390f35b61036b60048036038101906103669190611b2c565b610cb7565b6040516103789190611ad4565b60405180910390f35b61039b60048036038101906103969190611f90565b610d63565b005b6103b760048036038101906103b29190611fd9565b610e66565b6040516103c49190611a20565b60405180910390f35b6000806000837bffffffffffffffffffffffffffffffffffffffffffffffffffffffff19167bffffffffffffffffffffffffffffffffffffffffffffffffffffffff1916815260200190815260200160002060009054906101000a900460ff169050919050565b60606001805461044390612048565b80601f016020809104026020016040519081016040528092919081815260200182805461046f90612048565b80156104bc5780601f10610491576101008083540402835291602001916104bc565b820191906000526020600020905b81548152906001019060200180831161049f57829003601f168201915b5050505050905090565b60006104d182610efa565b610510576040517f08c379a0000000000000000000000000000000000000000000000000000000008152600401610507906120ec565b60405180910390fd5b6005600083815260200190815260200160002060009054906101000a900473ffffffffffffffffffffffffffffffffffffffff169050919050565b60006105568261084d565b90508073ffffffffffffffffffffffffffffffffffffffff163373ffffffffffffffffffffffffffffffffffffffff16146105c6576040517f08c379a00000000000000000000000000000000000000000000000000000000081526004016105bd9061217e565b60405180910390fd5b8073ffffffffffffffffffffffffffffffffffffffff168373ffffffffffffffffffffffffffffffffffffffff161415610635576040517f08c379a000000000000000000000000000000000000000000000000000000000815260040161062c90612210565b60405180910390fd5b826005600084815260200190815260200160002060006101000a81548173ffffffffffffffffffffffffffffffffffffffff021916908373ffffffffffffffffffffffffffffffffffffffff160217905550818373ffffffffffffffffffffffffffffffffffffffff168273ffffffffffffffffffffffffffffffffffffffff167f8c5be1e5ebec7d5bd14f71427d1e84f3dd0314c0f7b2291e5b200ac8c7c3b92560405160405180910390a4505050565b6000600780549050905090565b6106fe3382610f6c565b61070757600080fd5b61071283838361104a565b505050565b6000610722836108ff565b8210610763576040517f08c379a000000000000000000000000000000000000000000000000000000000815260040161075a9061227c565b60405180910390fd5b600960008473ffffffffffffffffffffffffffffffffffffffff1673ffffffffffffffffffffffffffffffffffffffff168152602001908152602001600020600083815260200190815260200160002054905092915050565b6107d783838360405180602001604052806000815250610bb5565b505050565b60006107e66106e7565b8210610827576040517f08c379a000000000000000000000000000000000000000000000000000000000815260040161081e906122e8565b60405180910390fd5b6007828154811061083b5761083a612308565b5b90600052602060002001549050919050565b6000806003600084815260200190815260200160002060009054906101000a900473ffffffffffffffffffffffffffffffffffffffff169050600073ffffffffffffffffffffffffffffffffffffffff168173ffffffffffffffffffffffffffffffffffffffff1614156108f6576040517f08c379a00000000000000000000000000000000000000000000000000000000081526004016108ed906123a9565b60405180910390fd5b80915050919050565b60008073ffffffffffffffffffffffffffffffffffffffff168273ffffffffffffffffffffffffffffffffffffffff161415610970576040517f08c379a00000000000000000000000000000000000000000000000000000000081526004016109679061243b565b60405180910390fd5b600460008373ffffffffffffffffffffffffffffffffffffffff1673ffffffffffffffffffffffffffffffffffffffff168152602001908152602001600020549050919050565b6060600280546109c690612048565b80601f01602080910402602001604051908101604052809291908181526020018280546109f290612048565b8015610a3f5780601f10610a1457610100808354040283529160200191610a3f565b820191906000526020600020905b815481529060010190602001808311610a2257829003601f168201915b5050505050905090565b3373ffffffffffffffffffffffffffffffffffffffff168273ffffffffffffffffffffffffffffffffffffffff161415610ab8576040517f08c379a0000000000000000000000000000000000000000000000000000000008152600401610aaf906124a7565b60405180910390fd5b80600660003373ffffffffffffffffffffffffffffffffffffffff1673ffffffffffffffffffffffffffffffffffffffff16815260200190815260200160002060008473ffffffffffffffffffffffffffffffffffffffff1673ffffffffffffffffffffffffffffffffffffffff16815260200190815260200160002060006101000a81548160ff0219169083151502179055508173ffffffffffffffffffffffffffffffffffffffff163373ffffffffffffffffffffffffffffffffffffffff167f17307eab39ab6107e8899845ad3d59bd9653f200f220920489ca2b5937696c3183604051610ba99190611a20565b60405180910390a35050565b610bbf3383610f6c565b610bfe576040517f08c379a0000000000000000000000000000000000000000000000000000000008152600401610bf590612539565b60405180910390fd5b610c0a848484846112c7565b50505050565b6060610c1b82610efa565b610c5a576040517f08c379a0000000000000000000000000000000000000000000000000000000008152600401610c51906125cb565b60405180910390fd5b6000610c64611323565b90506000815111610c845760405180602001604052806000815250610caf565b80610c8e8461133a565b604051602001610c9f929190612627565b6040516020818303038152906040525b915050919050565b600b8181548110610cc757600080fd5b906000526020600020016000915090508054610ce290612048565b80601f0160208091040260200160405190810160405280929190818152602001828054610d0e90612048565b8015610d5b5780601f10610d3057610100808354040283529160200191610d5b565b820191906000526020600020905b815481529060010190602001808311610d3e57829003601f168201915b505050505081565b600c81604051610d73919061264b565b908152602001604051809103902060009054906101000a900460ff1615610dcf576040517f08c379a0000000000000000000000000000000000000000000000000000000008152600401610dc6906126d4565b60405180910390fd5b600b81908060018154018082558091505060019003906000526020600020016000909190919091509080519060200190610e0a9291906118c9565b5060006001600b80549050610e1f9190612723565b9050610e2b338261149b565b6001600c83604051610e3d919061264b565b908152602001604051809103902060006101000a81548160ff0219169083151502179055505050565b6000600660008473ffffffffffffffffffffffffffffffffffffffff1673ffffffffffffffffffffffffffffffffffffffff16815260200190815260200160002060008373ffffffffffffffffffffffffffffffffffffffff1673ffffffffffffffffffffffffffffffffffffffff16815260200190815260200160002060009054906101000a900460ff16905092915050565b6000806003600084815260200190815260200160002060009054906101000a900473ffffffffffffffffffffffffffffffffffffffff169050600073ffffffffffffffffffffffffffffffffffffffff168173ffffffffffffffffffffffffffffffffffffffff161415915050919050565b6000610f7782610efa565b610fb6576040517f08c379a0000000000000000000000000000000000000000000000000000000008152600401610fad906127a3565b60405180910390fd5b6000610fc18361084d565b90508073ffffffffffffffffffffffffffffffffffffffff168473ffffffffffffffffffffffffffffffffffffffff16148061103057508373ffffffffffffffffffffffffffffffffffffffff16611018846104c6565b73ffffffffffffffffffffffffffffffffffffffff16145b8061104157506110408185610e66565b5b91505092915050565b600073ffffffffffffffffffffffffffffffffffffffff168273ffffffffffffffffffffffffffffffffffffffff1614156110ba576040517f08c379a00000000000000000000000000000000000000000000000000000000081526004016110b190612835565b60405180910390fd5b8273ffffffffffffffffffffffffffffffffffffffff166003600083815260200190815260200160002060009054906101000a900473ffffffffffffffffffffffffffffffffffffffff1673ffffffffffffffffffffffffffffffffffffffff161461115b576040517f08c379a0000000000000000000000000000000000000000000000000000000008152600401611152906128c7565b60405180910390fd5b816003600083815260200190815260200160002060006101000a81548173ffffffffffffffffffffffffffffffffffffffff021916908373ffffffffffffffffffffffffffffffffffffffff1602179055506001600460008573ffffffffffffffffffffffffffffffffffffffff1673ffffffffffffffffffffffffffffffffffffffff16815260200190815260200160002060008282546111fd9190612723565b925050819055506001600460008473ffffffffffffffffffffffffffffffffffffffff1673ffffffffffffffffffffffffffffffffffffffff168152602001908152602001600020600082825461125491906128e7565b92505081905550808273ffffffffffffffffffffffffffffffffffffffff168473ffffffffffffffffffffffffffffffffffffffff167fddf252ad1be2c89b69c2b068fc378daa952ba7f163c4a11628f55a4df523b3ef60405160405180910390a46112c2600083836114bc565b505050565b6112d284848461104a565b6112de848484846114c1565b61131d576040517f08c379a0000000000000000000000000000000000000000000000000000000008152600401611314906129af565b60405180910390fd5b50505050565b606060405180602001604052806000815250905090565b60606000821415611382576040518060400160405280600181526020017f30000000000000000000000000000000000000000000000000000000000000008152509050611496565b600082905060005b600082146113b457808061139d906129cf565b915050600a826113ad9190612a47565b915061138a565b60008167ffffffffffffffff8111156113d0576113cf611d41565b5b6040519080825280601f01601f1916602001820160405280156114025781602001600182028036833780820191505090505b5090505b6000851461148f5760018261141b9190612723565b9150600a8561142a9190612a78565b603061143691906128e7565b60f81b81838151811061144c5761144b612308565b5b60200101907effffffffffffffffffffffffffffffffffffffffffffffffffffffffffffff1916908160001a905350600a856114889190612a47565b9450611406565b8093505050505b919050565b6114a5828261162c565b6114ae816117ee565b6114b88282611837565b5050565b505050565b60006114cc846118b6565b1561161f578373ffffffffffffffffffffffffffffffffffffffff1663150b7a02338786866040518563ffffffff1660e01b81526004016115109493929190612afe565b6020604051808303816000875af192505050801561154c57506040513d601f19601f820116820180604052508101906115499190612b5f565b60015b6115cf573d806000811461157c576040519150601f19603f3d011682016040523d82523d6000602084013e611581565b606091505b506000815114156115c7576040517f08c379a00000000000000000000000000000000000000000000000000000000081526004016115be906129af565b60405180910390fd5b805181602001fd5b63150b7a0260e01b7bffffffffffffffffffffffffffffffffffffffffffffffffffffffff1916817bffffffffffffffffffffffffffffffffffffffffffffffffffffffff191614915050611624565b600190505b949350505050565b600073ffffffffffffffffffffffffffffffffffffffff168273ffffffffffffffffffffffffffffffffffffffff16141561169c576040517f08c379a000000000000000000000000000000000000000000000000000000000815260040161169390612bd8565b60405180910390fd5b6116a581610efa565b156116e5576040517f08c379a00000000000000000000000000000000000000000000000000000000081526004016116dc90612c44565b60405180910390fd5b816003600083815260200190815260200160002060006101000a81548173ffffffffffffffffffffffffffffffffffffffff021916908373ffffffffffffffffffffffffffffffffffffffff1602179055506001600460008473ffffffffffffffffffffffffffffffffffffffff1673ffffffffffffffffffffffffffffffffffffffff168152602001908152602001600020600082825461178791906128e7565b92505081905550808273ffffffffffffffffffffffffffffffffffffffff16600073ffffffffffffffffffffffffffffffffffffffff167fddf252ad1be2c89b69c2b068fc378daa952ba7f163c4a11628f55a4df523b3ef60405160405180910390a45050565b6007805490506008600083815260200190815260200160002081905550600781908060018154018082558091505060019003906000526020600020016000909190919091505550565b6000611842836108ff565b905081600960008573ffffffffffffffffffffffffffffffffffffffff1673ffffffffffffffffffffffffffffffffffffffff16815260200190815260200160002060008381526020019081526020016000208190555080600a600084815260200190815260200160002081905550505050565b600080823b905060008111915050919050565b8280546118d590612048565b90600052602060002090601f0160209004810192826118f7576000855561193e565b82601f1061191057805160ff191683800117855561193e565b8280016001018555821561193e579182015b8281111561193d578251825591602001919060010190611922565b5b50905061194b919061194f565b5090565b5b80821115611968576000816000905550600101611950565b5090565b6000604051905090565b600080fd5b600080fd5b60007fffffffff0000000000000000000000000000000000000000000000000000000082169050919050565b6119b581611980565b81146119c057600080fd5b50565b6000813590506119d2816119ac565b92915050565b6000602082840312156119ee576119ed611976565b5b60006119fc848285016119c3565b91505092915050565b60008115159050919050565b611a1a81611a05565b82525050565b6000602082019050611a356000830184611a11565b92915050565b600081519050919050565b600082825260208201905092915050565b60005b83811015611a75578082015181840152602081019050611a5a565b83811115611a84576000848401525b50505050565b6000601f19601f8301169050919050565b6000611aa682611a3b565b611ab08185611a46565b9350611ac0818560208601611a57565b611ac981611a8a565b840191505092915050565b60006020820190508181036000830152611aee8184611a9b565b905092915050565b6000819050919050565b611b0981611af6565b8114611b1457600080fd5b50565b600081359050611b2681611b00565b92915050565b600060208284031215611b4257611b41611976565b5b6000611b5084828501611b17565b91505092915050565b600073ffffffffffffffffffffffffffffffffffffffff82169050919050565b6000611b8482611b59565b9050919050565b611b9481611b79565b82525050565b6000602082019050611baf6000830184611b8b565b92915050565b611bbe81611b79565b8114611bc957600080fd5b50565b600081359050611bdb81611bb5565b92915050565b60008060408385031215611bf857611bf7611976565b5b6000611c0685828601611bcc565b9250506020611c1785828601611b17565b9150509250929050565b611c2a81611af6565b82525050565b6000602082019050611c456000830184611c21565b92915050565b600080600060608486031215611c6457611c63611976565b5b6000611c7286828701611bcc565b9350506020611c8386828701611bcc565b9250506040611c9486828701611b17565b9150509250925092565b600060208284031215611cb457611cb3611976565b5b6000611cc284828501611bcc565b91505092915050565b611cd481611a05565b8114611cdf57600080fd5b50565b600081359050611cf181611ccb565b92915050565b60008060408385031215611d0e57611d0d611976565b5b6000611d1c85828601611bcc565b9250506020611d2d85828601611ce2565b9150509250929050565b600080fd5b600080fd5b7f4e487b7100000000000000000000000000000000000000000000000000000000600052604160045260246000fd5b611d7982611a8a565b810181811067ffffffffffffffff82111715611d9857611d97611d41565b5b80604052505050565b6000611dab61196c565b9050611db78282611d70565b919050565b600067ffffffffffffffff821115611dd757611dd6611d41565b5b611de082611a8a565b9050602081019050919050565b82818337600083830152505050565b6000611e0f611e0a84611dbc565b611da1565b905082815260208101848484011115611e2b57611e2a611d3c565b5b611e36848285611ded565b509392505050565b600082601f830112611e5357611e52611d37565b5b8135611e63848260208601611dfc565b91505092915050565b60008060008060808587031215611e8657611e85611976565b5b6000611e9487828801611bcc565b9450506020611ea587828801611bcc565b9350506040611eb687828801611b17565b925050606085013567ffffffffffffffff811115611ed757611ed661197b565b5b611ee387828801611e3e565b91505092959194509250565b600067ffffffffffffffff821115611f0a57611f09611d41565b5b611f1382611a8a565b9050602081019050919050565b6000611f33611f2e84611eef565b611da1565b905082815260208101848484011115611f4f57611f4e611d3c565b5b611f5a848285611ded565b509392505050565b600082601f830112611f7757611f76611d37565b5b8135611f87848260208601611f20565b91505092915050565b600060208284031215611fa657611fa5611976565b5b600082013567ffffffffffffffff811115611fc457611fc361197b565b5b611fd084828501611f62565b91505092915050565b60008060408385031215611ff057611fef611976565b5b6000611ffe85828601611bcc565b925050602061200f85828601611bcc565b9150509250929050565b7f4e487b7100000000000000000000000000000000000000000000000000000000600052602260045260246000fd5b6000600282049050600182168061206057607f821691505b6020821081141561207457612073612019565b5b50919050565b7f4552433732313a20617070726f76656420717565727920666f72206e6f6e657860008201527f697374656e7420746f6b656e0000000000000000000000000000000000000000602082015250565b60006120d6602c83611a46565b91506120e18261207a565b604082019050919050565b60006020820190508181036000830152612105816120c9565b9050919050565b7f43757272656e742063616c6c6572206973206e6f7420746865206f776e65722060008201527f6f662074686520636f6e74726163740000000000000000000000000000000000602082015250565b6000612168602f83611a46565b91506121738261210c565b604082019050919050565b600060208201905081810360008301526121978161215b565b9050919050565b7f417070726f76616c206f6620746f6b656e7320746f2063757272656e74206f7760008201527f6e6572206973206e6f7420616c6c6f7765640000000000000000000000000000602082015250565b60006121fa603283611a46565b91506122058261219e565b604082019050919050565b60006020820190508181036000830152612229816121ed565b9050919050565b7f4f776e657220696e646578206973206f7574206f6620626f756e647300000000600082015250565b6000612266601c83611a46565b915061227182612230565b602082019050919050565b6000602082019050818103600083015261229581612259565b9050919050565b7f476c6f62616c20696e646578206973206f7574206f6620626f756e6473000000600082015250565b60006122d2601d83611a46565b91506122dd8261229c565b602082019050919050565b60006020820190508181036000830152612301816122c5565b9050919050565b7f4e487b7100000000000000000000000000000000000000000000000000000000600052603260045260246000fd5b7f4552433732313a20546f6b656e2061742074686973206164647265737320646f60008201527f6573206e6f742065786973740000000000000000000000000000000000000000602082015250565b6000612393602c83611a46565b915061239e82612337565b604082019050919050565b600060208201905081810360008301526123c281612386565b9050919050565b7f4552433732313a204e46542061737369676e656420746f207a65726f2061646460008201527f7265737300000000000000000000000000000000000000000000000000000000602082015250565b6000612425602483611a46565b9150612430826123c9565b604082019050919050565b6000602082019050818103600083015261245481612418565b9050919050565b7f4552433732313a20617070726f766520746f2063616c6c657200000000000000600082015250565b6000612491601983611a46565b915061249c8261245b565b602082019050919050565b600060208201905081810360008301526124c081612484565b9050919050565b7f4552433732313a207472616e736665722063616c6c6572206973206e6f74206f60008201527f776e6572206e6f7220617070726f766564000000000000000000000000000000602082015250565b6000612523603183611a46565b915061252e826124c7565b604082019050919050565b6000602082019050818103600083015261255281612516565b9050919050565b7f4552433732314d657461646174613a2055524920717565727920666f72206e6f60008201527f6e6578697374656e7420746f6b656e0000000000000000000000000000000000602082015250565b60006125b5602f83611a46565b91506125c082612559565b604082019050919050565b600060208201905081810360008301526125e4816125a8565b9050919050565b600081905092915050565b600061260182611a3b565b61260b81856125eb565b935061261b818560208601611a57565b80840191505092915050565b600061263382856125f6565b915061263f82846125f6565b91508190509392505050565b600061265782846125f6565b915081905092915050565b7f4572726f723a2063727970746f4d6f6e6b657920616c7265616479206578697360008201527f7473000000000000000000000000000000000000000000000000000000000000602082015250565b60006126be602283611a46565b91506126c982612662565b604082019050919050565b600060208201905081810360008301526126ed816126b1565b9050919050565b7f4e487b7100000000000000000000000000000000000000000000000000000000600052601160045260246000fd5b600061272e82611af6565b915061273983611af6565b92508282101561274c5761274b6126f4565b5b828203905092915050565b7f546f6b656e20646f6573206e6f74206578697374000000000000000000000000600082015250565b600061278d601483611a46565b915061279882612757565b602082019050919050565b600060208201905081810360008301526127bc81612780565b9050919050565b7f4164647265737320726563656976696e6720746f6b656e20646f6573206e6f7460008201527f206578697374206f72206973206e6f7420636f72726563740000000000000000602082015250565b600061281f603883611a46565b915061282a826127c3565b604082019050919050565b6000602082019050818103600083015261284e81612812565b9050919050565b7f53656e646572206164647265737320646f6573206e6f74206f776e207468697360008201527f20746f6b656e0000000000000000000000000000000000000000000000000000602082015250565b60006128b1602683611a46565b91506128bc82612855565b604082019050919050565b600060208201905081810360008301526128e0816128a4565b9050919050565b60006128f282611af6565b91506128fd83611af6565b9250827fffffffffffffffffffffffffffffffffffffffffffffffffffffffffffffffff03821115612932576129316126f4565b5b828201905092915050565b7f4552433732313a207472616e7366657220746f206e6f6e20455243373231526560008201527f63656976657220696d706c656d656e7465720000000000000000000000000000602082015250565b6000612999603283611a46565b91506129a48261293d565b604082019050919050565b600060208201905081810360008301526129c88161298c565b9050919050565b60006129da82611af6565b91507fffffffffffffffffffffffffffffffffffffffffffffffffffffffffffffffff821415612a0d57612a0c6126f4565b5b600182019050919050565b7f4e487b7100000000000000000000000000000000000000000000000000000000600052601260045260246000fd5b6000612a5282611af6565b9150612a5d83611af6565b925082612a6d57612a6c612a18565b5b828204905092915050565b6000612a8382611af6565b9150612a8e83611af6565b925082612a9e57612a9d612a18565b5b828206905092915050565b600081519050919050565b600082825260208201905092915050565b6000612ad082612aa9565b612ada8185612ab4565b9350612aea818560208601611a57565b612af381611a8a565b840191505092915050565b6000608082019050612b136000830187611b8b565b612b206020830186611b8b565b612b2d6040830185611c21565b8181036060830152612b3f8184612ac5565b905095945050505050565b600081519050612b59816119ac565b92915050565b600060208284031215612b7557612b74611976565b5b6000612b8384828501612b4a565b91505092915050565b7f4552433732313a206d696e74696e6720746f207a65726f206164647265737300600082015250565b6000612bc2601f83611a46565b9150612bcd82612b8c565b602082019050919050565b60006020820190508181036000830152612bf181612bb5565b9050919050565b7f4552433732313a20746f6b656e20616c72656164792065786973747300000000600082015250565b6000612c2e601c83611a46565b9150612c3982612bf8565b602082019050919050565b60006020820190508181036000830152612c5d81612c21565b905091905056fea264697066735822122072e95e23e5f9728541dc51b74daddfb3b4f1b833f9c40370658e59e88817e0d064736f6c634300080c0033",
  "immutableReferences": {},
  "source": "// SPDX-License-Identifier: MIT\npragma solidity ^0.8.9;\n\nimport './ERC721Connector.sol';\n\ncontract CryptoMonkey is ERC721Connector {\n\n    string[] public cryptoMonkeyz;\n\n    mapping(string => bool) _cryptoMonkeyzExists;\n\n    function mint(string memory _cryptoMonkey) public {\n        // Depricated (push no longer returns the length but the reference of the added element)\n        // uint _id =  cryptoMonkeyz.push(_cryptoMonkey);\n\n        require(!_cryptoMonkeyzExists[_cryptoMonkey], 'Error: cryptoMonkey already exists');\n        cryptoMonkeyz.push(_cryptoMonkey);\n        uint _id = cryptoMonkeyz.length - 1;        \n        _mint(msg.sender, _id);\n\n        _cryptoMonkeyzExists[_cryptoMonkey] = true;\n    }\n\n    constructor() ERC721Connector('CryptoMonkeyz', 'CMNKZ'){}\n}",
  "sourcePath": "/Users/daviddamljanovic/Documents/nft-newest/backend/src/contracts/CryptoMonkeyz.sol",
  "compiler": {
    "name": "solc",
    "version": "0.8.12+commit.f00d7308.Emscripten.clang"
  },
  "schemaVersion": "3.4.3",
  "updatedAt": "2022-03-13T06:08:14.341Z",
  "networkType": "ethereum",
  "devdoc": {
    "kind": "dev",
    "methods": {
      "safeTransferFrom(address,address,uint256)": {
        "details": "See {IERC721-safeTransferFrom}."
      },
      "safeTransferFrom(address,address,uint256,bytes)": {
        "details": "See {IERC721-safeTransferFrom}."
      },
      "tokenByIndex(uint256)": {
        "details": "Returns a token ID at a given `index` of all the tokens stored by the contract. Use along with {totalSupply} to enumerate all tokens."
      },
      "tokenOfOwnerByIndex(address,uint256)": {
        "details": "Returns a token ID owned by `owner` at a given `index` of its token list. Use along with {balanceOf} to enumerate all of ``owner``'s tokens."
      }
    },
    "version": 1
  },
  "userdoc": {
    "kind": "user",
    "methods": {},
    "version": 1
  }
}